:020000040800F2
:1000000030060020D1410008F1410008F34100080A
:1000100000000000000000000000000000000000E0
:10002000000000000000000000000000F541000892
:100030000000000000000000F7410008F94100083E
:10004000C31100081B12000833120008E712000851
:100050003B130008A3180008A7180008CB280008C5
:10006000000000008B330008733400082B400008A8
:10007000C3410008CF4100080000000019420008F9
:100080000000000000000000000000000000000070
:100090001B420008000000001D4200081F4200082B
:1000A00000000000214200080000000000000000E5
:1000B0002342000825420008000000000000000064
:1000C000FDB5B6B03E98049102A93B2288540020A9
:1000D0000D9018A8401C32900CE00498369A904776
:1000E0000490002800D135E10D98401C0D90379800
:1000F000401C379037980178002912D02529ECD17F
:1001000000200790089009900A900B900C90002115
:100110000224042017900120139008201290379D8C
:1001200004E00D9818E10800139901436D1C28782C
:100130002028F8D023280BD02B2804D02D2804D039
:10014000302808D00AE02143F0E708001799ECE7CF
:1001500008000821E9E708001021E6E72A280FD166
:10016000389802681068121D389B1A600F9000289A
:1001700004D542420F920800179901436D1C12E00A
:1001800000200F90B84A09E00F9B934205DA9E00C9
:10019000F3185B00181830380F906D1C2878030096
:1001A000303B0A2BF0D328782E2803D00020C04300
:1001B0000E9027E06D1C28782A2808D1389800680E
:1001C0000268001D389B18600E926D1C1AE02D28E5
:1001D00002D12D226D1C00E0002200200E900CE0C8
:1001E000002A09D10E9BA04EB34205DA9E00F318F7
:1001F0005B00181830380E906D1C28780300303BD7
:100200000A2BEDD302A801872E7831005648784496
:10021000FF30573000F0CCFF002801D06D1C00E00B
:10022000002602A83A214654405C682804D1287868
:1002300068280BD1622005E06C2807D128786C284B
:1002400004D1712002A93A2288546D1C23A806907B
:10025000287869460870681C379068460578280039
:10026000253834D01C3800D19AE1001F022800D86C
:1002700096E10E3831D0401F01D100F00BFD093856
:1002800000D18DE1801E01D100F0A2FD401E01D100
:1002900000F04EFD401E022800D881E1001F01D170
:1002A00000F046FD401F00D1CFE0401E01D100F01C
:1002B000F1FC401E78D0C01E27D0801E01D100F076
:1002C000E9FCC01E01D100F0E5FC00F0A0FD2520F6
:1002D00023A908701398079034E06C2002A93A22F1
:1002E0008854389800680268001D38990860002A10
:1002F00053D102A83B21405C00284AD00024E443AB
:1003000058487844FF305F3018E002A83A21405C3A
:100310006C28E6D0389800680468001D3899086099
:100320000594002C22D102A83B21405C002815D066
:100330000024E4434D487844FF30333000F042FF5E
:10034000201A07D123AA02A9369800F06FFD0028D1
:1003500000D4CFE60020C04339B0F0BD4448784413
:10036000FF300F300590EDE7383C00000E9D002D6A
:1003700003D5200000F04AFF09E02A0000212000F8
:1003800000F04CFF002801D0001B00E0280008907E
:10039000D8E7384A7A44FF32233A02A9369800F067
:1003A000CFFD0028CED5D5E7389800680268001D3B
:1003B000389908600020C0430021104002AA03C2FF
:1003C00023A80590069A3C2302A803C8002904D15B
:1003D000002802D10E9C002C13D05B1E05072D0FA8
:1003E0003035EEB23A2E00DB2735D55400090C0724
:1003F0002043090901D1002803D0059CD518AC423F
:10040000EBD33C20C01A0890D11805910E99884270
:1004100007DA081A0A9002A8018FB04A0A40028738
:1004200090E700298ED502A93822895C14220A405F
:10043000102A87D10F99079A891A0A9A891A081AD5
:10044000002800DC7EE70A907CE702A83B21415CA3
:10045000002911D00024E4434F487844FF303B305A
:100460006CE700BF943B0000CBCCCC0C6C3B000095
:10047000843B0000A03B00003A21405C62286BD026
:1004800068281CD06A2847D06C2806D0712855D01F
:10049000742833D07A2823D06FE038980068016838
:1004A000001D389A1060002906D10024E4433B481F
:1004B0007844FF30173841E70D98086042E73898D4
:1004C00000680168001D389A1060002905D10024D9
:1004D000E44332487844C43030E70D98088031E76F
:1004E000389800680168001D389A10600029E3D12F
:1004F0000024E44329487844A2301FE73898006874
:100500000168001D389A10600029D5D10024E44309
:1005100022487844863011E7389800680268001D48
:1005200038990860002A05D10024E4431B48784428
:100530006A3003E70D98C11703C203E738980068D3
:100540000268001D38990860002AF3D10024E443B2
:10055000124878444630F1E6389800680168001D7A
:10056000389A1060002905D10024E4430B487844F0
:100570002A30E3E60D980870E4E6389800680168D0
:10058000001D389A1060002996D10024E4430348E6
:1005900078440830D2E600BF103A0000243A000048
:1005A00038980268D21D072082433898026003CA37
:1005B000389B1A6002AA03C2C80F02D007982D21E7
:1005C0000AE002A8008F204202D007982B2103E006
:1005D000C00705D50798202123AA1154401C079075
:1005E00023A807994318059318AA02A803C814ACB6
:1005F00003C46846007820210143684641706129A0
:1006000009D00E98002801D5062003E003D1672900
:1006100001D113980E9002A803C8080041004915A3
:10062000491C14D1000312D003200890613D1A2DFB
:1006300004D254497944FF314D3103E052497944A1
:10064000FF3147310322180000F00EFE7AE602A8BF
:1006500003C8080041004915491C0BD1000309D10A
:1006600003200890613D1A2D18D348497944FF3181
:100670001D31E7E702A803C834AB03C334A830C870
:10068000BBA003C82040294080256D03A9420AD29F
:10069000002634AB30CB604069400EE03C497944E1
:1006A000FF311139CEE7080DAEA6C0CE361834A8FA
:1006B00003C8B14D0D40AD49294302AB03C36846A1
:1006C0004078612811D1059830210170811C059175
:1006D00069460978612903D1782102E0EFFF000023
:1006E000582141700798801C079002A803C8A0A455
:1006F00030CC04400D4002D1002C00D180E168468E
:100700004078612800D0B9E00E98002801D521205A
:1007100000E0401C1690169F7F1C14A803C80022FE
:10072000002300F0AEFD02A830C802D280200006EF
:100730004540361F019618A90A7018A8461C002FBC
:1007400055DD20002900002280235B0300F0B2FD6C
:100750004DD869004A0D11001C31002A1AD0002919
:1007600018DDB04A914206DB1005290080221206EE
:100770001140014312E0804A2A4008051043050059
:100780000EE000BF94380000943800009838000054
:1007900090380000290080221206114000240D002C
:1007A0002000290000F0A0FD1490FF1F002F09DD9C
:1007B00000F0D4FD02000B002000290000F03BFEF9
:1007C00004000D00F01D0721149A002A0ADD491EBD
:1007D00008D4401E13071B0F03701211F5E7401ECB
:1007E00000220270491EFAD5C61D002FA9DC18A9E7
:1007F0003298331A18A8421C1698834200DC18005D
:10080000002834D4984205DA4B1C1B5C082B01DB12
:100810000F2300E00023040018AD2D1901E0401E55
:100820006D1E641E2E789E42F9D00F2B04D14B1CF6
:100830001B5D5B1C491C0B55002C04D518AA401CE1
:100840000199091D0191431E11D4D41869460978F4
:1008500025783035EEB23A2E02DB0E003A3EAD1965
:1008600025705B1E641E002BF2D56B4619700E9925
:10087000002900D4C2E0411E0E91BFE014A830C888
:100880006D006D08694930004843694900F04AFE2F
:10089000019007200199401A05DD0200200029007F
:1008A00000F03EFC0AE042420020624900F038FCC1
:1008B00002000B002000290000F063FE6A46527817
:1008C000662A02D1019A0A3200E006220E9B9A188B
:1008D000142A00DD142218AB30241C705C1C02E0CA
:1008E00014A803C8169A002A48DD14AB03C3169255
:1008F00014A803C800F00AFD229006460834179D8C
:1009000030000A2100F022FE0F0030000A2100F022
:100910001DFE06003037601E077030000A2100F00F
:1009200015FE0F0030000A2100F010FE0600A41E84
:10093000303727706D1EE3D10834169808381690AA
:100940000028CDDD229800F0F9FC02000B0014A86D
:1009500003C800F070FD0022374B00F073FE14AAAC
:1009600003C2C5E702FCFFFFFFFFFFFF0000E03FFF
:10097000FFFFFFFFFFFFFF7FFFFF0F803298211A6D
:1009800018A8421C019802E0491E401E521C137810
:10099000302BF9D0019068464078662802D1019842
:1009A000401C06E068464078652801D1139800E0B5
:1009B00000200E9B1818814200DA481E00281DD422
:1009C000884204DA115C342901DD392300E0302348
:1009D0000400511E0D1901E0401E6D1E641E2E788C
:1009E0009E42F9D0392B02D1135D5B1C1355002CAC
:1009F00004D50A00401C0199491C01910500019C85
:100A00000192684606780E9F28B2002804DC139DE8
:100A100005487844123001906846407866280DD128
:100A2000641C25E0FF0700000036000097750000F9
:100A3000A08601000000F03F84D7974168464078C7
:100A4000672845D120B20321C943884244DBB8421C
:100A500042DA641C02A8008F1299C0B2084203D186
:100A600028B2B84200DA070020B23F1A00D50027AA
:100A700026B2002E00DDA8E00898411C0891302124
:100A8000059A1154002F05DC02A8008F1299C0B2FC
:100A9000084205D00898411C08912E21059A11544E
:100AA0007042874200DA7C4224B260420B903C19CB
:100AB00028B2844200DA25002DB209952A00019956
:100AC0000598089BC01800F0CFFB601B0C90C7E096
:100AD000612E14D1702615E028B2B84206DA02A9B8
:100AE000098F129AC9B2114200D107007F1E00D5AA
:100AF0000027672E01D1652604E0452602E0412E3D
:100B000000D150260898411C089101990978059A4E
:100B100011540198411C002F05DC02A8008F129A85
:100B2000C0B2104218D00898421C08922E22059B91
:100B30001A54002F10DD6D1E28B2874200DA3D00E6
:100B40002AB20598089BC01800F08EFB2DB20898B9
:100B500040190890781B0B9005980899401806706A
:100B600021B2002903D42B214170871C03E02D22E0
:100B70004270871C4C4212AD2000002405E00A217F
:100B800000F0D0FC2970641C6D1C00B20028F6DC5B
:100B9000012C06DC20203043652802D1302038703B
:100BA0007F1C002C09D1302038707F1C07E0641EA8
:100BB00012A8005D303038707F1C002CF7DC0598DF
:100BC00008994018381A09904AE028B221B28842A0
:100BD0001CDA2AB201990598089BC01800F044FB62
:100BE0002DB2089840190890711B0B91002F05DC5D
:100BF00002A9098F129AC9B2114205D02E21059A75
:100C000011540998401C09900C9729E022B20199CF
:100C10000598089BC01800F027FB089880190890D9
:100C20002C1B002F05DC02A9098F129AC9B21142B0
:100C300004D0411C08912E21059A115420B28742FC
:100C400000DA3C0022B2019881190598089BC0186F
:100C500000F00AFB24B2089800190890381B0B908A
:100C600002A83821405C14210140102901D0FFF76F
:100C700069FB0798089940180B9940180999401882
:100C80000C9940180F99884201DBFFF75BFB081AAB
:100C9000FFF7D9FB02AA3A20105C622808D0682826
:100CA0000ED06A2814D06C281DD0712810D01AE0FC
:100CB000389801680868091D389B1960C0B218E0AF
:100CC000389801680868091D389B196080B210E0E7
:100CD00038980368DB1D072083433898036003CBF3
:100CE000389C236006E0389801680868091D389B25
:100CF0001960002102AB03C3108F1299C0B20842E1
:100D00005BD002A803C8002901D1002855D068464D
:100D100000782021014378294FD1079823A9302258
:100D20000A54401C421C07926A4612780A5444E056
:100D300002AA3A20105C622808D068280ED06A28DF
:100D400014D06C281DD0712810D01AE03898016892
:100D50000868091D389B196040B218E0389801688E
:100D60000868091D389B196000B210E038980368C4
:100D7000DB1D072083433898036003CB389D2B602D
:100D800006E0389801680868091D389B1960C1178A
:100D900002AB03C3002902DA07982D2109E0108F66
:100DA000204202D007982B2103E0C00705D5079801
:100DB000202123AA1154401C079023A8079940180A
:100DC00005906846017802A800F01AF9FFF7BAFA10
:100DD00002A83A21405C6C280BD0139807903898F1
:100DE00000680168001D389A106023A80170FFF7A1
:100DF000A9FA389800680168001D389A10600091BF
:100E000000200190C0430E906A46FFF7C6FA2520E5
:100E100023A908701398079068460078002801D12C
:100E2000FFF790FA4D700794FFF78CFAFEB50600B5
:100E30000D001700686B6969401A296A401AA96990
:100E4000401A696A401AE969401AA96A401A019071
:100E50003820285C400710D420206946087001988B
:100E600000280ADD019C01236A462900300000F0B9
:100E70007FF9002860D1641EF5D13A006B69290022
:100E8000300000F075F9002856D130276846077009
:100E90002C6A002C09DD01236A462900300000F08D
:100EA00067F9002848D1641EF5D1AB69EA682900CA
:100EB000300000F05DF900283ED1684607706C6A8A
:100EC000002C09DD01236A462900300000F050F9AA
:100ED000002831D1641EF5D1EB69E868A969421890
:100EE0002900300000F044F9002825D16846077039
:100EF000AC6A002C09DD01236A462900300000F0AD
:100F000037F9002818D1641EF5D13820285C400735
:100F100010D5202069460870019800280ADD019C40
:100F200001236A462900300000F022F9002803D18D
:100F3000641EF5D1002001E00020C04303B0F0BDE5
:100F4000F0B5A7B004000D0016002F6B002F00D5E0
:100F5000844F00F039FC696B081803A900220023B4
:100F60000CC1812838D2029206940095002425E015
:100F7000AF4234DB00984069401981280BD30098B8
:100F8000446307AA00990698FFF750FF02900028D3
:100F900025D4009844610098406905902A0001A971
:100FA00007A8059BC01800F05FF905984019009943
:100FB00048613068002812D0361D7F1B002F0EDDDF
:100FC00003AA316801A800F005FC050004D43068CC
:100FD0000028CDD16D1ECBD50020C0430EE0069B6E
:100FE000009C0298002804D107AA21001800FFF7EE
:100FF0001DFF002802D100216161616327B0F0BDAF
:10100000F2B586B0040025696F2901D1082707E0F1
:10101000084620210143782901D00A2700E0102743
:101020003C2603CC083C04AA03C26A46127E642A0A
:1010300003D06A46127E692A09D1002907DA04A87A
:1010400003C800220023121A8B4104A80CC004A874
:1010500003C800290DD100280BD1206B002808D12E
:10106000082F3BD13820205C000737D53B263020A5
:1010700033E00294009504A830C8761E0196200043
:1010800029003A00FB1700F0C9FB3032D0B23A28F1
:1010900003DB6846007E5138121800988255200004
:1010A00029003A00FB1700F0B9FB04000D0001D144
:1010B000002C05D00298C068009989198842DCD3B9
:1010C000029C009D082F09D13820205C000705D51F
:1010D000A85D302802D0761E3020A8553C20801B09
:1010E000A061A919E160216B884206DA081A206222
:1010F000208F1D490140218710E000290ED538219D
:10110000615C14220A40102A08D1616B6269891A55
:10111000226A891A081A002800DD206207B0F0BD93
:10112000F8B50026114F04000D00009214E0C0072E
:1011300007D532003B002000290000F083FA0400AC
:101140000D000098401000903000390032003B0044
:1011500000F078FA06000F0000980028E7D1200080
:101160002900F4BDFFFFFF7FEFFF000000002440D7
:10117000F8B50024002B11D007000E0014001D004C
:101180002178B068B847B060002809D0F06A401CE8
:10119000F0620020641C6D1EF2D104002000F2BD3C
:1011A0000020C043F9E70268531C036011707047C8
:1011B000C9B202788A4203D0401C002AF9D100202B
:1011C0007047FEE780B5002801D100BF07A006499F
:1011D0000B68002B03D022220021984701E000F089
:1011E00052FB222002BD000028020020636F6E73B4
:1011F000747261696E742068616E646C65723A2005
:10120000626164206D65737361676500431C0178DA
:10121000401C0942FBD1C01A7047FEE7C9B2521EFA
:1012200005D30378401C8B42F9D1401E7047002043
:101230007047FEE770B4103A03D378C9103A78C00B
:10124000FBD2530701D318C918C001D508C908C07B
:10125000D20704D30B880380891C801C002A01D587
:101260000B78037070BC70478B0701D18307E1D006
:10127000124205D00B78491C0370401C521EF9D154
:10128000704730B4012464054D00EC420BD85D007A
:10129000EC4208D80C001C4364000443144304D2FD
:1012A000994200D1904230BC7047FCD08B42FAD1B9
:1012B0008242F8E730B4012464054D00EC420BD8BB
:1012C0005D00EC4208D80C001C4364000443144346
:1012D00004D28B4200D1824230BC7047FCD099428C
:1012E000FAD19042F8E7FEE7F4464A1805D200F03A
:1012F0000FF801D580174008604700F009F8012178
:10130000C907884200D90800404260474A1812D2F3
:10131000400DC90208430121C9070843520D40216D
:101320000901521A521C06D452421F3201D4D04035
:101330007047C017704700207047FEE70100422247
:101340001201D21E004207D002D4521E0018FCD552
:10135000C10A400512058918704700000100EED54A
:101360004042F446FFF7EBFF0122D20711436047EA
:10137000F0B40125ED070F005F404FD48B4200D140
:10138000824205D98446100062468C4619006346A5
:10139000DF184C18640D7F0D3AD0661C760537D0E7
:1013A000E61B352E34DCDB022B43DB0A0C0DC902B5
:1013B0002943C912202E0DDB1700203E06D01F0046
:1013C000F741F3405F400026012A7741C018714180
:1013D0000DD217E01700F741F2405740F3415A4051
:1013E000B340F3405A400026801859410AD3A21C4A
:1013F00052050FD0C207012F724117004008CB07DA
:1014000018434908641C24054208AF4170416141FA
:10141000F0BC7047641C21050020F9E76B4010E028
:101420006B40ABE7F742F3D1E943F1E72442EFD158
:1014300000200021ECE7F0B40125ED070F005F402C
:10144000EED40C00871A9C4105D2C01BA141D219D1
:10145000634169406B40AE0ADF184C18F442E1D298
:10146000640D7F0DE2D0E61B362ED1DCDB022B4370
:10147000DB0AA4460C0DC9022943C90A012E28DC47
:1014800004D1D6075208DF073A435B08EF0A7642D9
:101490009041994114D039423BD1B619404149415C
:1014A000761C394204D1761C001849413942FAD0E1
:1014B000B9436746B74208D9A41B24052143A7E7CF
:1014C0000042EAD13642E8D1A2E7E40AE10700206F
:1014D0009EE7202E0BDD203E1F00F340F7415F40CA
:1014E000012A002257417E42984191410BE01700AA
:1014F000F741F2405740F3415A40B340F3405A405D
:101500007E42904199410A0303D2641EB6194041BC
:1015100049410027641E24054208AE4178416141DB
:10152000F0BC7047CA0F00D0494203105A400DD09A
:1015300004B500D3404200F009F8009AD20701D365
:101540004942124200D5404204BD0000094214D075
:1015500088420FD30122030C01D10004120400239E
:1015600000185B418B4200D35B1A5241F8D319003B
:101570001000704701000020704708B500F088F99E
:1015800008BDF0B40E005E400125ED072E40B446C4
:10159000AE0ADF184C18F4423BD2F74241D2640D38
:1015A00043D07F0D38D0E41BC902DB0229432B4313
:1015B000CF0ADB0A0600B61A9F4104D2641EB61990
:1015C0007F41B6185F416812800D241800188442CC
:1015D00022DAE80C0021B6197F41B61A9F4102D2E7
:1015E000B6185F413F1C40414941F4D3241C21DD22
:1015F0002405B6197F41B61A9F4105D33743C60764
:1016000037430026012F7041614166463143F0BCEB
:101610007047FCD1F74205D20020C1434905490873
:10162000F3E704D00020C143F1E77F0DFAD000209A
:101630006146ECE72442FAD1401C61410F03F6D326
:101640000020E2E7F0B50E005E400125ED072E40D8
:10165000B446AE0ADF184C18F44208D2F7420ED254
:10166000640D01D07F0D12D100206146F0BD05D17F
:10167000F74201D87F0D05D10020C143F0BDFBD159
:10168000640DF9D00020C143490549088FE0E419F1
:10169000C902DB0229432B43DB0A460DC00231435A
:1016A0008E4630B487B295B27D432E0CADB2140C89
:1016B0007C43A419260C240425439CB27C43A41922
:1016C000190C7943270CC919A4B20F043C43090C27
:1016D000000C97B247432E0CBE193543ADB2170C20
:1016E0004743360CBF19A6B2BF193E043543240C3C
:1016F0003E0C36199FB24743BF19BCB23E0C891944
:101700001F0C47437F183E043443390C704680B2A7
:1017100097B247432E0CBE193543ADB2170C474361
:10172000360CBF19A6B2BF193E043543240C3E0C3B
:1017300036199FB24743BF19BCB23E0C89191F0C22
:1017400047437F183E043443390C77463F0C90B230
:1017500078432E0C80190604ADB22E43050CA0B2BE
:101760002D18120C7A435019020C80B2240CA418C4
:101770009AB27A43121914042043120C89181B0CD4
:101780007B43C91830BCEF0A394203D1B619404136
:101790004941641E6F12BF0DE41B0BDBFF19BC42F5
:1017A00011DA240500274208AE41784161416646BE
:1017B0003143F0BD641C05D1401C6141CF0201D30F
:1017C0004908F4E750E75DE70120704780B500F075
:1017D00060F802BD80B50023FFF7F8FF02BD30B40A
:1017E000DC0F03D05B42524200D25B1E0D106C40F6
:1017F00013D0F446002502D349424042A94100F0EB
:101800000DF8E40703D35B425242AB41244202D5B8
:1018100049424042A94130BC604730BC124224D00A
:10182000994228D970B500251B4202D00C00002136
:1018300009E00024012649186441944200D3A41A07
:101840007641F8D33100012601E0764109D2001833
:1018500064416D41A41A9D41F7D2A4185D41B619A7
:10186000F5D3300022002B0070BD1B42D8D108B543
:1018700000F018F808BD01D19042D3D202000B004D
:1018800000210020704780B5012000F00DF801BD57
:101890007047FF2902D90020C04370470170012022
:1018A0007047FEE77047FEE780B500BF00BF024A01
:1018B00011001820ABBEFBE726000200F8B584B08B
:1018C00006006BD0B84CE0680C2101400091E06844
:1018D00080214902084003903078C0070ED54F00A0
:1018E0000098082804D00C2801D10398884279D1A7
:1018F0002068074002D0706800284FD00220029074
:1019000030680221014036D0F0682021084204D01E
:1019100022681143216020218843A44F0921C94333
:1019200004220192009A042A06D0009A0C2A01D1BE
:10193000039A002A00D090E022680423134001D0CB
:1019400000282BD062681740326912023A43626065
:10195000226811400843206000F08AFAB049E2682A
:101960001206120F895CC840AE490860002000F0E2
:10197000D7FA010035D1A70D3078C00600D4B7E002
:10198000BA480390600D01900098002800D08FE0C5
:1019900020680199014003D0B069002800D1A4E17A
:1019A000606803990140306A084360606068000223
:1019B000000AF1690906014361600120316A490B9F
:1019C000491C8840C0039649E2681206120F895CE0
:1019D000C84094490860002000F0A2FA010000D13C
:1019E00086E085E17068884201D1206809E0A02185
:1019F000C9028842206806D179000143216020682D
:101A0000790801430AE0BB49014021602068790858
:101A10000840019001982068B74901402160706832
:101A200000280DD000F096FA05002068384000D05C
:101A300064E700F08FFA401B6528F6D3032057E1D6
:101A400000F088FA05002068384000D156E700F021
:101A500081FA401B6528F6D3F0E7002817D02268EA
:101A600011400843206000F075FA050020680199D4
:101A7000014005D100F06EFA401B0228F6D9DDE7DF
:101A800060680740306900023843606073E720688F
:101A900001218843206000F05DFA0500206801996B
:101AA0000140F3D000F056FA401B0228F6D9C5E7F2
:101AB000B0690028206832D03843206000F04AFA2C
:101AC000050020680199014005D100F043FA401B50
:101AD0000228F6D9B2E7606803990140306A0843EA
:101AE000606060680002000AF169090601436160F4
:101AF0003078000733D570690028206D1FD0012190
:101B00000143216500F026FA0500206D029901408D
:101B100025D100F01FFA401B0228F6D98EE777493D
:101B20000140216000F016FA05002068019901408B
:101B3000DED000F00FFA401B0228F6D97EE7012123
:101B40008843206500F006FA0500206D02990140E7
:101B500005D000F0FFF9401B0228F6D96EE7307877
:101B6000400768D5002001903805A16B014004D1E1
:101B7000A16B0843A06301200190614800683840D0
:101B800016D15F48006838435D49086000F0E2F90B
:101B900005005B48006838400AD100F0DBF9401BC3
:101BA0006528F6D34AE700BF00100240FFE0FFFFC0
:101BB000B168B9420AD0534800290BD0A022D20004
:101BC000914207D1206D210D01432165206D07430E
:101BD000276506E0216D494A0A402265216D0840CB
:101BE0002065670DB06800280CD000F0B3F905003F
:101BF000206D384018D100F0ADF9401B994988425A
:101C0000F6D31BE700F0A6F90500206D38400BD095
:101C100000F0A0F9401B93498842F6D30EE700BFBD
:101C200084400008000000200198002803D0A06B29
:101C30008D490140A163706A002858D000990C2991
:101C40003ED08027BF048949022820682AD101405C
:101C5000216000F07FF905002068384008D000F0CE
:101C600079F9401B0228F7D9E8E600BFFF1FFFFF04
:101C7000E0689A490140B06A0843F16A0143306B59
:101C80000843E060206879080143216000F062F9B0
:101C90000500206838402AD100F05CF9401B02287A
:101CA000F7D9CBE60140216000F054F90500206827
:101CB00038401CD000F04EF9401B0228F7D9BDE691
:101CC000012812D0E068802149020140B26A9142A5
:101CD0000BD1F02189030140F26A914205D1C02164
:101CE00009040140306B814201D0012000E0002056
:101CF00005B0F0BDFFFFFEFFFFFFFBFFFFFEFFFF94
:101D000000700040FFFBFFFFF8B5040032D00091E7
:101D100079480068C107C90F009881420CD2764803
:101D2000016801229143009A0A4302600068C107DA
:101D3000C90F009881426FD1704D2078800705D57A
:101D4000E868F0218843A1680143E9600127206821
:101D5000384051D06068022802D12968890308E020
:101D6000032802D12968890103E00128296802D1EA
:101D7000490702D450E089054ED5E9680322914312
:101D80000843E86000F0E6F80600606802280CD11D
:101D9000E8680C21014008292ED000F0DBF8801BF8
:101DA00030498842F4D30320F2BD03280BD1E86800
:101DB0000C2101400C291FD000F0CCF8801B2949D0
:101DC0008842F4D3EFE701280BD1E8680C210140E9
:101DD000042911D000F0BEF8801B22498842F4D3B8
:101DE000E1E7E8680C21014006D000F0B3F8801B61
:101DF0001C498842F5D3D6E73F48009902683A402B
:101E000091420BD20168B943009A0A43026000680C
:101E100007400098874201D00120F2BD207840079A
:101E200005D5E86836490140E0680843E860207855
:101E3000000706D5E868334901402069C00008431F
:101E4000E86000F015F83049EA681206120F895C64
:101E5000C8402E490860002000F062F8010000D15F
:101E60000020F2BD89130000FFFFFFEFFFFFFFFE20
:101E7000F0B5224DE968274A9308102654080C2033
:101E80000840042804D0082809D00C2809D01DE0F7
:101E90002868064001D01800F0BD1000F0BD2000F9
:101EA000F0BD1D488F023F0FC05D0902890F491C1C
:101EB000EF68FF0301D5604305E02C68264001D0A0
:101EC000584300E05043FFF741FBF0BD6868012133
:101ED0000004400F401C8140C803F0BDFFFF02FF1B
:101EE0000A4800680D490A4A12685205FFE7520F76
:101EF000895CC8407047000000200240001002408A
:101F0000FFF8FFFFFFC7FFFF84400008000000202C
:101F10000C1002400024F400944000080C42000819
:101F200038B5050000240A480068FA218900FFF747
:101F30000DFB00F036F8002801D0012405E029004F
:101F400000220020C04300F028F8200032BD00BF6E
:101F50000000002001480068704700BF24020020F4
:101F600010B5C20018231340FF249C40E2438907A8
:101F7000090E9940030007D5144B0007000F0838DD
:101F800080088000181803E011489B089B00C018C7
:101F900003681A401143016010BD80B5FFF7E0FFF0
:101FA00001BD10B5401E80214904884201D30120A3
:101FB00010BD084C606003210020C043FFF7D0FF34
:101FC0000020A0600721216010BD00001CED00E092
:101FD00000E400E010E000E070B5040001D1012051
:101FE00070BD2500403500266878002803D12E708A
:101FF000200000F01AFB242068702068016801228C
:1020000091430160606826490140206801612168B0
:1020100024488A6802408A60E1680129A16801D1E8
:10202000C24301E0842212020A4321688A60E16807
:10203000022903D1802109012268516021684A6880
:10204000194B13434B602168CA681040C86020696F
:1020500061690143A069000208432168C860E06922
:10206000216A0143206801602068016801220A4357
:1020700002606E60202068702663AE70002070BD24
:1020800020202168C86121684A68084B13404B60D2
:10209000210040314870002088700870FEBD0000AB
:1020A000FFFFFFF0FF7FFFFF0080000200E800FE5F
:1020B000FEB504000F0016001D00403040782028B7
:1020C00000D0A2E00898002803D06846808C002841
:1020D00005D18020800021004031486091E04020FF
:1020E000205C012800D190E0012040216054FFF7DE
:1020F00031FF0290009019230122D103200000F04B
:10210000C1F900287DD12B0032002120210040316F
:10211000487040202100403188700020210040316B
:102120004860089860626846808C60850020606323
:10213000029801900A9800903900200000F036F9CA
:10214000002803D00020402160545AE0608DFF2811
:102150003AD9FF2020850020009080235B04FF22D5
:102160003900200000F040FA0A9E029D2A0031004A
:10217000200000F0B3F9002843D1606A007821689C
:102180008862606A401C60628548618D09186185BB
:10219000218D08182085618D002928D0000426D1C2
:1021A0000095330000228021200000F06BF9002808
:1021B00027D1608DFF280FD9FF20208500200090B7
:1021C00080235B04FF220EE0628D228500200090B8
:1021D00080239B04D2B2C3E7628D22850020009049
:1021E00080239B04D2B23900200000F0FDF9608DFD
:1021F0000028BBD131002A00200000F098F9002807
:1022000001D00120FEBDFFF73BFF0220FEBD000014
:10221000FEB584B0060040304178202900D0BBE0F4
:102220000C99002902D00D9F390003D1802189002B
:102230004160A0E04020305C012800D1ACE03500D6
:10224000403501202870FFF785FE04003068806962
:1022500000040DD5FFF77EFE001B1A28F6D32020C0
:1022600069680143696068700020A870287082E086
:1022700002966846038B828A3046403003902220C3
:1022800068704020039988700026039846600C9877
:1022900002994862029847850298466301940E9815
:1022A00000906846018A029800F0AEF8002802D03B
:1022B000039806705FE0802040040190394802993D
:1022C000498DFF293AD9FF21029A11850090019B7F
:1022D000FF226846018A029800F086F9029D0E9F4F
:1022E00000943B0000220421280000F0CBF80028D5
:1022F00041D12868406A696A0870686A401C68624F
:102300002749288D401828856A8D51186985698D5F
:10231000002926D0000424D100943B000022802113
:10232000280000F0AFF8002825D1688DFF280DD9CE
:10233000FF2028850096019BFF220DE002994A8D1F
:102340000A85009080239B04D2B2C2E76A8D2A8559
:10235000009680239B04D2B26846018A280000F0D0
:1023600043F9688D0028BBD139002200280000F015
:10237000DEF8002801D001200FE020202968C86184
:1023800029684A68084B13404B6029004031487067
:10239000002088700E7000E0022007B0F0BD000041
:1023A000FFFF00000024008000E800FEF8B50600F2
:1023B00015001C00079F2B48009080235B04E2B2AD
:1023C000300000F011F93A000699300000F086F86C
:1023D000002817D1012C09D0280A316888623A00F8
:1023E0000699300000F07AF800280BD1EDB2306881
:1023F00085620097069B00228021300000F042F8A1
:10240000002800D00120F2BDF8B5060015001C0020
:10241000079F144800900023E2B2300000F0E4F877
:102420003A000699300000F059F8002817D1012C25
:1024300009D0280A316888623A000699300000F015
:102440004DF800280BD1EDB2306885620097069BED
:1024500000224021300000F015F8002800D00120B3
:10246000F2BD00000020008000688169890701D565
:1024700000218162012182690A4002D182691143EF
:1024800081617047F8B5002405000F0068460270AE
:102490001E00286880693840B84201D1012000E060
:1024A000002069460978884216D10020C043864240
:1024B000EFD0FFF74FFD0699401A864201D3002E58
:1024C000E7D128004030202142680A434260417031
:1024D000847004700120F2BD0020F2BD70B50400CC
:1024E0000D0016002068806980071ED43200290084
:1024F000200000F040F8002801D0012070BD00202D
:10250000C0438542EED0FFF725FD801B854201D3F5
:10251000002DE7D120004030202142680A4342606C
:102520004170002181700170E7E7002070BDF8B5AF
:10253000202504000E00170020688069284018D16B
:102540003A003100200000F016F800280FD1FFF704
:1025500001FDC01B864201D3002EEDD1200040308A
:10256000416829434160457000218170017001205C
:10257000F2BD0020F2BDF8B5102403689B6923402A
:1025800030D005000F000092202628688169314074
:1025900011D10020C0438742F7D0FFF7DBFC009940
:1025A000401A874201D3002FEFD128004030416804
:1025B0003143416010E0C4612868C6612800FFF71C
:1025C00053FF28684168114A0A40426028004030A1
:1025D000416804220A434260467000218170017004
:1025E0000120F2BD0020F2BDF0B5059C00684568F1
:1025F000660D074F3743BD438905890D29431204F2
:102600000A4313431C434460F0BD000000E800FE91
:10261000FF63FF032E48016801220A4302604168FC
:10262000802252050A434260704710B586B004000C
:102630001422002101A800F055F82068254988429D
:102640001BD10120244C21680143216021680140F5
:1026500000910099C021C9000191122102910390BB
:1026600003210491059001A9A020C00500F044F8C1
:10267000E068802189030143E16006B010BD10B518
:1026800086B004001422002101A800F02BF8206875
:102690001249884219D11049C86880229202024327
:1026A000CA6002200A6802430A600968014000917A
:1026B0000099C02101910290002003900321049110
:1026C000059001A9064800F017F806B010BD0000FB
:1026D00034100240005400402C10024000440040DE
:1026E0000004005010B50400080011000200200092
:1026F00000F0C4F8200010BDFFB50022594B019333
:102700000123029330E0062703E0574FB842FAD185
:102710000527A74037432F60019C2568DC432540EF
:102720004E68F60300D51D43019E3560019D6D681E
:1027300025404E68B60300D51D43019E7560019D7E
:10274000AD6825404E68F60200D51D43019EB56078
:10275000019DED682C404D68AD0202D525001C009E
:102760002C43019BDC60521C0C682300D34071D0C9
:10277000029B934003932340F5D094006D462C7048
:102780004C68022C01D0122C11D1D408A4000519D8
:102790002C6A6E4637781C263E400F27B740BC4354
:1027A0000F69BC4637006646BE4026432E62540081
:1027B0000326A640F5434E68012E05D0022E03D015
:1027C000112E01D0122E11D186682E40CF68A7405D
:1027D000374387604768039EB743BC464E68370956
:1027E000029E3E40964067463E43466006682E4045
:1027F0000F79BF07BF0FA74037430760C668354052
:102800008E68A6402E43C6604C68E400ABD5174CDA
:102810002468029D2543154C2560154C9508AD0094
:1028200065192E686C4627780C243C400F27A7407A
:10283000BE43A027FF05B84201D1002769E70D4F2D
:10284000B84201D1029F64E70B4FB84200D05CE769
:1028500002275EE7FFBD002A01D0816170478162D7
:102860007047000000040140001C0050341002407A
:102870000800014000040050000800501206130A2E
:102880001A43130C1A4300BF094205D0830705D031
:102890000270401C491EF9D1704700001300103926
:1028A00006D330B41400150010393CC0FCD230BC43
:1028B000490700D30CC000D504C0890002D30280B0
:1028C000801C002900D502707047FEE703210170CB
:1028D0000422427005228270C2700022027141718E
:1028E00070471FB51400384A02920222019203AACF
:1028F000009201230A00818C4904090C806AFFF7C9
:1029000087FC002807D103A8417809020078014319
:102910002180012000E0002004B010BD1FB52A4C2A
:1029200002940193009201230A00818C4904090C4E
:10293000806AFFF76DFC002800D0012004B010BDB4
:10294000D0B50C0000F0B0FA19A20CCAFEF710FDC9
:1029500019A20CCAFEF776FE19A20CCAFEF711FEE8
:1029600006000F001948210000F0B7FA00F09CFAA9
:1029700000F0BCFC32003B00FEF764FE00F0BBFC44
:10298000D0BD06B583B0124A02920122019204AA78
:10299000009201230A00818C4904090C806AFFF728
:1029A00087FB002800D0012005B000BD000000001A
:1029B00066666666661271403BD0F9DF00A1204072
:1029C000A27F828B1535D23F8813000080E6C54771
:1029D000102700007CB504000D00A08C762801D0E3
:1029E000772814D1012322003232D0212000FFF7B2
:1029F00095FF00280BD13220205C582801D0602898
:102A000005D1B622E0212000FFF7BBFF002800D04F
:102A1000D0E001236A46F3212000FFF77FFF002862
:102A2000F7D168460078C007F3D42200882120003F
:102A3000FFF757FF002843D0A21C8A212000FFF790
:102A400050FF00283CD0221D8C212000FFF749FFB9
:102A5000002835D0A21D8E212000FFF742FF00285C
:102A60002ED02200083290212000FFF73AFF0028E4
:102A700026D022000A3292212000FFF732FF0028E0
:102A80001ED022000C3294212000FFF72AFF0028DC
:102A900016D022000E3296212000FFF722FF0028D8
:102AA0000ED02200103298212000FFF71AFF0028D4
:102AB00006D0220012329A212000FFF712FF0028D0
:102AC00078D0220014329C212000FFF70AFF002852
:102AD00070D0220016329E212000FFF702FF00284E
:102AE00068D03220205C602841D1012322001832B6
:102AF000A1212000FFF712FF00285BD122001A322B
:102B0000E1212000FFF7EDFE002853D00123220031
:102B10001C32E3212000FFF701FF00284AD16A465A
:102B2000E4212000FFF7DDFE002843D000AA921C1C
:102B3000E5212000FFF7D5FE00283BD0012322002D
:102B40002232E7212000FFF7E9FE002832D1684653
:102B500000880001FF210901014068460088000546
:102B6000000F0843E08368464088000920846879A4
:102B7000400169788A000243D2B2F5212000FFF7B4
:102B800000FF002816D12878012801D100202870E4
:102B9000E8784001A978890001432E780E4332205D
:102BA000205C602808D12A79F2212000FFF7E9FE95
:102BB000002801D0002076BDF2B2F4212000FFF7FA
:102BC000E0FE401E8041C00F76BDFEB588B0050016
:102BD0000C003220285C60280FD0002B01D0002090
:102BE000186000200A90062302AAF7212800FFF7A8
:102BF00095FE002805D0002017E1002BF3D0082314
:102C0000F2E720006946097A090302AA5278120104
:102C10000A4302A9897809091143049102A9C978D4
:102C2000090302AA127913010B4302A949790A097F
:102C30001A432B881109C91AD2085B00D21A022341
:102C4000EB5E5A43D2120B004B4319130423EB5E85
:102C5000594389135418A1000919803109120160E0
:102C6000E1178BA6C0CE36194F4130003900320033
:102C70003B0000F071FB1022AA5ED31700F06CFB42
:102C800000900191300039000E22AA5ED31700F0A7
:102C900063FB4904C20B11434004009A019B801856
:102CA000594106AA03C23000390032003B0000F04F
:102CB00053FB0A22AA5ED31700F04EFB000A0A0655
:102CC0001043091200900191300039000822AA5ED9
:102CD000D31700F041FB0903020D11430003009AD2
:102CE000019B8018594102000B000020802109023D
:102CF00080185941EA88002300F02EFB4E10CF17B0
:102D000003D1002E01D1002253E08020400304991A
:102D1000421AD317DB0750080343D20706A803C89B
:102D2000121A8B41009201930C202A5ED3000022DC
:102D300000980199801A9941574A002300F00CFB32
:102D400032003B00FEF74BFD06000F001620285E08
:102D5000C11700900191720BF80402437B13009895
:102D600000F0FAFA00900191720BF80402437B1311
:102D7000009800F0F1FA400ECA011043491680197C
:102D80007941009001911420285EC11732003B0068
:102D900000F0E2FAC00C4A031043C914009A019BE8
:102DA00080185941000A0A0610431222AA5E120135
:102DB0001218099802600A98002835D03748201860
:102DC00002A98A791202C979114389031E22AA5ED7
:102DD0001205891A2022AA5E4243891A8022D20152
:102DE0008918C9132222AA56424392122B7F5843B4
:102DF000C01280231B02C018424390129A0180180F
:102E00001A22AA5E50439A08801880134143C813BF
:102E100002004243D0112A7E50430011081A06D501
:102E2000002000130A99086001200BB0F0BD1C4976
:102E30008842F6DB080BF5E77FB50D0014001E0095
:102E400001D06B4600E0002301AA02A9FFF7BDFEF6
:102E5000002819D0029800F0A9FA124900F03DF8B4
:102E60002860019800F092FAEE21890500F0A9FA95
:102E70002060002E07D0009800F088FAEA2189052A
:102E800000F09FFA3060012004B070BD0000000027
:102E9000000CFEFFFFFFFFFF350C000000D4FEFF1B
:102EA000010000190000C842012212060118CA429E
:102EB0000AD28A420DD83822120609098918C20F8F
:102EC000D20711434007704700D049080909014360
:102ED00001E0C10FC9070020704730B405004D4024
:102EE0000122D20715404B180418240E28D01B0EBF
:102EF0002FD0FF2C34D0FF2B37D0E41A0002090268
:102F00001043114343084808D10D1B1A02D2641E16
:102F1000DB181B18DB18834200D31B1A4941F9D375
:102F20007F3426DDFE2C08DAE4054808C90719437A
:102F300091416041284330BC7047FF20C005F9E74C
:102F400028001B0E03D0FF2BF5D14902F3D0D0434C
:102F5000F1E7FF2C01D14002F9D1FF20C005E9E7DC
:102F60004002F4D1FF2BF8D1F1E728004902E2D06A
:102F7000EDE70B0200202442DCD15B129B1CD9D967
:102F8000D805D7E7F8B586B04B005B155B1C09D1B7
:102F90004B005B155B1C02D10A0300D04DE1CA0F48
:102FA00029D14AE102AB03C3C8A430CC02A803C8AC
:102FB000294080277F03B94208D20023009302AB47
:102FC000C0CB7040794006000F0009E0080D9C4E10
:102FD0003618009602A8C0C89F493940994F0F4340
:102FE00034403D4004D1002C02D10020964924E118
:102FF0003900C80F04D000BF00BFB4A003C81CE153
:103000003000002907DA002480252D06241A8D417E
:1030100002A830C001E002AB03C38CA430CC002D69
:1030200006DA002080210906001BA94104000D00DA
:1030300002A803C8A94222DC01DBA0421FD279000A
:103040004B0D591C002B11D000290FDD814B9942EB
:1030500006DB1805390080231B061940014309E0EF
:103060007D4B3B4008051843070005E039008023ED
:103070001B06194000260F000098401E0090019288
:103080000020764932003B00FEF772F904000D0083
:103090000020734932003B00FEF76AF902000B0082
:1030A00020002900FEF76DFA04AA03C204A80CC888
:1030B00004A803C8FEF7C6FA06000F0069A003C8FB
:1030C00032003B00FEF7BEFA68A20CCAFEF750F9C8
:1030D00032003B00FEF7B6FA66A20CCAFEF748F9CA
:1030E00032003B00FEF7AEFA64A20CCAFEF740F9CC
:1030F00032003B00FEF7A6FA62A20CCAFEF738F9CE
:1031000032003B00FEF79EFA60A20CCAFEF730F9CF
:1031100032003B00FEF796FA5EA20CCAFEF728F9D1
:1031200032003B00FEF78EFA02000B00200029005F
:10313000FEF781F904AA0CCAFEF784FA04AA03C2B6
:103140000098FEF70BF906000F000198002818D12F
:1031500052A003C832003B00FEF774FA04AA0CCA5E
:10316000FEF769F922002B00FEF702F904000D00BA
:103170004CA003C832003B00FEF764FA22002B008B
:1031800059E036DD0020494922002B00FEF75AFAAB
:103190000290039146A003C822002B00FEF752FACA
:1031A0000090019144A003C832003B00FEF74AFAA8
:1031B00004000D0004A803C841A20CCAFEF742FA9D
:1031C00002000B0020002900FEF735F9009A019B50
:1031D000FEF7CEF8029A039BFEF7CAF804000D0032
:1031E0000020394932003B00FEF72CFA22002B0068
:1031F00021E038A003C822002B00FEF723FA00903C
:10320000019136A003C822002B00FEF71BFA040030
:103210000D0004A803C833A20CCAFEF713FA02007B
:103220000B0020002900FEF706F9009A019BFEF72B
:103230009FF832003B00FEF79BF807B0F0BD00009E
:1032400002FCFFFF0000E03F0000F0FFCD3B7F6687
:103250009EA0E63FFF070000FFFF0F800000F0BFC9
:103260000000F03FF7DE29BFD8F8C23FF4B3FECC30
:103270001A99C33F62CB68D96F46C73FC6C912DAF5
:10328000C471CC3F4AE98A942449D23FF75F9799A9
:103290009999D93FBC5555555555E53F9EBC9AF770
:1032A0001C7D7F3E000000C0422EE63F7BCBDB3F13
:1032B000ABA6320EE526553E7CC4BC7FDE27743EAD
:1032C0000EE526157BCBDB3F1344D33FFFFFFFFF0B
:1032D000FFFFFF7F000000604715F73F44DF5DF808
:1032E0000BAE543EFE822B654715F73F80B500229A
:1032F000FFF748FE04BD012252054B18DA4201D9FE
:10330000581570475B0D0722D2019B1A10D9FF2B6D
:103310001DD2DB050122D2070A4013430903020D27
:103320001143490AC200524100D9491CC8187047CC
:103330000AD1800A0A0302435212921C04D9D3070D
:103340000B40D00518437047C80FC0077047C80F1F
:103350000002FF30C005704730B4434351435D184D
:10336000010C0C00130C5C432D1980B2434392B244
:1033700051430024C918644124040B04090C0919A1
:103380005043C018694130BC7047FEE79D210200E0
:103390000AD002D4491E9218FCD5C905100A12069B
:1033A000524100D3012A4841704700009D2102008C
:1033B000EED55242F446FFF7EBFF0122D20710434D
:1033C000604730B405004D400122D20715404B182C
:1033D0000418240E2ED01B0E32D0FF2C34D0FF2B1D
:1033E0003AD0E4180002090210431143000A090A06
:1033F0009446C2B24A43000AC3B24B43000A484350
:10340000110A5B181A43D2B2190A091801D44918D3
:10341000641E080A7F3C23DBFE2C08DAE40509065B
:103420001143634699416041284330BC7047FF20F7
:10343000C005F9E728001B0EFF2BF6D1D043F4E7B7
:103440002800FF2CF1D1F9E74002F7D1FF2B01D181
:103450004902F3D1E005E7E7D8054902E4D0EDE7FA
:1034600043020020641CDFD15B129B1CDCD9D80511
:10347000DAE7FEE738B5040014D025007035686837
:10348000002803D128702000FFF7F9F82420686095
:1034900020680168012291430160200000F091F84A
:1034A000012801D1012032BD606A002802D020002D
:1034B00000F090F920684168084A0A40426020689C
:1034C00081682A2291438160FFE720680168012218
:1034D0000A430260200000F0E5F932BDFFB7FFFFAC
:1034E000FEB507001C0070304068202867D10D0031
:1034F0000BD0160009D0B86880214901884206D156
:103500003869002803D1E80701D50120FEBD7020ED
:10351000385C012853D001207021785400203900F4
:103520007031C8602120390070314860FEF712FD0B
:1035300050217E52390050314E80B96880225201AC
:10354000914206D13969002903D1019402900C00FF
:1035500011E029000025F8E721788162641C07E06A
:103560003868002CF8D12988C905C90D8162AD1CC5
:103570007088401E70803E005036708800280AD047
:1035800001980090029B00228021380000F0BCF9D5
:103590000028E5D009E0029B01980090002240211C
:1035A000380000F0B1F9002801D00320FEBD38003A
:1035B000703020214160002101700020FEBD0220FA
:1035C000FEBDF1B582B01025102200200024029922
:1035D00009680E687B4B3340029EB6681E43029B0F
:1035E0001B693343029E76691E43029BDB693343AA
:1035F0000B604E68744B3340029EF6681E434E606B
:10360000029B9B69714EB14203D01E00029B1B6A54
:1036100033438E686E4F37403B438B609F4B9942DC
:103620000CD19F4BDB6C0C261E401BD0042E1BD0F4
:10363000082E01D00C2E13E0022218E0634B9942B1
:1036400015D1974BDB6CC02636011E400AD0930182
:103650009E4209D0D3019E42EED0C0231B019E4260
:1036600004D004E0002202E0042200E008220092DC
:10367000A44B9E08EA02554FB94232D10098002867
:1036800006D0022813D0042819D008281AD090E0B8
:10369000FEF726FC002800D18CE002994A68510010
:1036A0008918884202D3110381420DD281E07C48FF
:1036B0000068054001D03000EFE71800EDE7FEF7A5
:1036C000D7FBE7E71000E8E7070E060250080021E5
:1036D000801979410023FEF7A1F8A5494118A54AB0
:1036E00061E00299C9699142009931D1002906D05F
:1036F000022907D0042910D0082915D01DE0FEF7B3
:10370000EFFB0CE0029841684808654A12681540D2
:1037100001D05A080CE05A000AE0FEF7A9FB029912
:10372000496840004A0803E002984168480852008E
:103730008018FDF70BFF80B200E001240100103972
:103740008D4A914235D202400007400F10432CE0D1
:10375000002906D0022907D0042912D0082916D042
:103760001DE0FEF7BDFB0EE00298406800904008A7
:103770004B4909680D4001D0801900E0C01800993C
:1037800009E0FEF775FB029949684A0802E00298D1
:10379000416848088018FDF7D9FE80B200E0012496
:1037A00001001039744A914203D202990968C86035
:1037B00000E0012400200299086602994866200072
:1037C000FEBD0000F369FFEFFFCFFFFF00480040A0
:1037D000FFF4FFFF2421415CC90706D501684A6850
:1037E000664B1340826A1A434A602421415C890770
:1037F00006D501684A68624B1340C26A1A434A60A0
:103800002421415C490706D501684A685D4B134095
:10381000026B1A434A602421415C090706D50168FE
:103820004A68594B1340426B1A434A602421415C59
:10383000C90606D501688A68544B1340826B1A4347
:103840008A602421415C890606D501688A68504B4C
:103850001340C26B1A438A602421415C490611D58A
:1038600001684A684B4B1340026C1A434A60026C71
:1038700080235B039A4205D14A68474B1340426C50
:103880001A434A602421415C090606D501684A684A
:10389000424B1340806C184348607047004400401E
:1038A00000100240F8B5040000257030C560FEF736
:1038B00051FB07003A4E20680068000709D50096C2
:1038C0003B00002280218903200000F01DF8002821
:1038D0000DD12068006840070BD500963B00002200
:1038E0008021C903200000F00FF8002801D0032038
:1038F000F2BD210070312020486088600D700020EA
:10390000F2BD00000024F400FEB5089E002405006E
:103910000F006846027001932868C0693840B842B9
:1039200001D1012000E000206946097888421DD1BC
:103930000020C0438642EFD0FEF70CFB0199401AED
:10394000864201D3002EE7D128680168154A0A4053
:1039500002602868816801229143816028007030EC
:1039600020214160816004700320FEBD0020FEBD67
:1039700000FDFFFF00FD0F00F0FF0000FFFFFDFF57
:10398000FFFFFEFFFFFFFBFFFF7FFFFFFFEFFFFFDC
:10399000FFDFFFFFFFFFEFFFFFFF9FFFFFFFF7FFCF
:1039A000FFFFFF015FFEFFFFF8B588B000F024F9CC
:1039B00000F0D1F81422002101A8FEF793FE0421A3
:1039C000834802680A43026002681140009100992E
:1039D000012701683943016001683940009100996D
:1039E000022102680A4302600068014000910098C9
:1039F000784D002208212800FEF72DFF08200190B5
:103A0000029700240394049401A92800FEF774FE91
:103A1000714D2E00B8367148306071487060B460E6
:103A2000F76034617461B461F46134623000FEF7B0
:103A3000D3FA0021300000F0F3F80021300000F04C
:103A40000CF96848A863E1204002E8632C646C64C8
:103A5000AC640C20E8642C656C65AC65EC652800F2
:103A60003830FFF707FD28002C30FEF72FFF7620B7
:103A7000A884AE62FA27FF0002E0380000F016F9D1
:103A800029002C312800FEF7A5FF0028F5D064207E
:103A900000F00CF93224842040002818079002E03E
:103AA000380000F003F982204000281806908E208C
:103AB0004000281805900346069A07992800FFF74A
:103AC000BBF90028ECD0F16C306DFEF739FFF16DD9
:103AD00000F0FCF8F065642000F0E8F8641EE2D124
:103AE000F06D4149FFF7F9F9706590204000281802
:103AF00004903E4C2DE0380000F0D8F8059B069A63
:103B000007992800FFF798F90028F4D0F16C306D80
:103B1000FEF716FF3066716D00F010F9B065FFF723
:103B2000C3F902900391306DFFF7BEF90090019147
:103B3000F06CFFF7B9F902000B002100049800F0C7
:103B400055F9A8867B08AA8E049928003830FFF71B
:103B5000C7FC0A20D0E710B598B0342200210BA88A
:103B6000FEF7C0FD142200216846FEF7BBFD1822B7
:103B7000002105A8FEF7B6FD1D4801681D4A0A4050
:103B8000C10C1143016002200B9001210E91102104
:103B90000F91149000241594400416900001179082
:103BA0000BA8FDF78BFE0F200090032001900294DC
:103BB0000394049401216846FEF7A6F80A200590B4
:103BC0000794099405A800F031F918B010BD000061
:103BD0002C1002400004005004000020005400405B
:103BE000380F30000044004000004842A040000868
:103BF00000700040FFE7FFFF10B500240748016890
:103C000040220A4302600020FEF78AF9002801D012
:103C1000012401E0FEF7FEFC200010BD0020024060
:103C200070B5020040325378202B14D14023C35C7E
:103C3000012B10D0012313702424547004682568CC
:103C40009D43256004682568164E2E402660046852
:103C5000256829431CE0022070BD70B50200403287
:103C60005378202B12D14023C35C012B0ED00123AB
:103C7000137024245470046825689D4325600468EB
:103C80002568094E2E400902314301E0022070BD33
:103C90002160006801680B43036020205070002001
:103CA000107070BDFFEFFFFFFFF0FFFF38B504009D
:103CB000FEF750F905000020C043844200D0641C88
:103CC000FEF748F9401BA042FAD331BD0122D207CA
:103CD00003004B402ED4431A01D2C01AC91830B485
:103CE0004B180418240E1B0E22D0FF2C20D0E31AF0
:103CF000182B1DDC09021143C40D641E0002104381
:103D000094461925ED1A0A00AA40D940451801D356
:103D10006D08A41CE405D209280A2D062A4365462D
:103D2000AA41604103181B0EFF2B01D3C00DC00533
:103D300030BC7047514006E05140CCE70122D20729
:103D400003004B40F8D4431A03D2C01AC91850409C
:103D5000514030B44B18090211430418240E1B0EB5
:103D600040D0FF2C3AD025009D410BD31ED8C50D65
:103D70004002401A0BD3ED050100400AC9059141EC
:103D80006841D5E7C50D40024918401AD0D001213D
:103D90004008491C0018FCD58C4204D36D1A000A57
:103DA000ED054019C4E7E8051040C1E7182DBFDC58
:103DB000AC1C0D00E140E5414D40012D4941C40DD1
:103DC00000021043451A01D46D199543641EE405A1
:103DD000280A2D069541604130BC7047FF2BA7D1C2
:103DE000D843A5E72442A3D10020A1E70CB418B51D
:103DF00083B004000A0006A80290019400200090FD
:103E000002AB01A9084878441E30FCF759F900219B
:103E1000019A1170002801D40198001B04B0019987
:103E200010BC03B0084700BF7FD3FFFFFEB50700FB
:103E3000514C3878800678D50020019080204005CC
:103E4000A16B014004D1A16B0843A0630120019044
:103E5000A50D4A480068284013D1484800900068E2
:103E6000284300990860FEF775F80600009800687E
:103E7000284006D1FEF76EF8801B6528F6D3032094
:103E8000FEBD21687868C02292030A40C0218903E0
:103E900001408A420BD0C02189020140C022920217
:103EA000914204D12168890301D50120FEBDC026BD
:103EB000B602216D314020D0304081421DD038788B
:103EC00080061AD5216D2E480840216DEA020A436A
:103ED0002265216D2B4A0A402265206505400CD0E1
:103EE000FEF738F80500206D800506D4FEF732F89D
:103EF000401B25498842F6D3C1E77868310001406C
:103F0000B14206D12168214A0A40310101401143E2
:103F10002160206D79680E400643266501980028CF
:103F200003D0A06B1A490140A1633878800705D5FA
:103F3000E06C0C218843B9680143E164387840079C
:103F400005D5E06C13490140F8680843E06438780F
:103F5000000705D5E06C1049014038690843E0646A
:103F60003878000605D5E06C0C49014078690843B3
:103F7000E0640020FEBD0000001002400070004020
:103F8000FFFFFCFFFFFFF7FF89130000FFFFCFFFDC
:103F9000FFFFFFEFFFF3FFFFFFCFFFFFFFFFF3FF89
:103FA000686A6C747A4C00007072696E74665F7334
:103FB0003A20256E20646973616C6C6F77656400CC
:103FC0007072696E74663A2062616420256E2061A9
:103FD0007267756D656E74007072696E74665F737A
:103FE0003A2062616420257320617267756D656E89
:103FF00074000000000000007072696E74665F73E8
:104000003A2062616420256C7320617267756D656A
:104010006E740000000000006E616E004E414E00A4
:10402000696E6600494E46003000FEE70F480168A1
:10403000820D0A430260C1680D4A0A40C2600168ED
:104040000C4A0A4002608168012291438160016844
:10405000094A0A400260C168084A0A40C260002159
:104060000161802000050649086070470010024089
:104070000C40FF88F6FFF6FEFFFFFBFFFFFF02FF8D
:1040800008ED00E000000000000000000102030451
:1040900006070809030406080C1018203000000069
:1040A00050726573737572653A20252E3266205002
:1040B000612C2054656D70657261747572653A206B
:1040C000252E326620432C20645F416C7469747520
:1040D00064653A20252E3266204D200A000000003B
:1040E00070B40123002413E00168001D194202D0BE
:1040F0004D466D1E49190C60091D121F042AFAD283
:104100000D00960701D50C80AD1C1A4000D02C7014
:104110000268001D002AE7D170BC704730B401224C
:104120000EE00368C31844680830144202D04D46BC
:104130006D1E64191D6825601B1D241D091FF9D102
:104140000168001D0029ECD130BC704710B507494B
:1041500079441831064C7C44163404E0081D0A6882
:10416000891888470100A142F8D110BD080000005D
:10417000280000006DFFFFFF28020000040000205F
:104180000000000099FFFFFF04000000880000000D
:10419000000000200000000000F00DF8002801D011
:1041A000FFF7D4FF00BF00BF002000BF00BFFFF734
:1041B000FBFB00F002F80120704780B500F002F828
:1041C00001BDFEE707463846FDF76EFBFBE7FEE75D
:1041D00001488047014800472D400008014200087F
:1041E00002480168491C0160704700BF240200209A
:1041F0007047FEE77047704780B5FFF7F1FF01BDDC
:1042000000BF00BF00BF00BFFFF7C6FF00000000F7
:104210000102030400002000FEE7FEE7FEE7FEE7E0
:06422000FEE7FEE7FEE7E9
:0400000508004201AC
:00000001FF
