:020000040800F2
:1000000048060020494E0008154E0008174E00080B
:1000100000000000000000000000000000000000E0
:100020000000000000000000000000001B4E00085F
:1000300000000000000000001D4E00081F4E0008D8
:10004000471400089B140008671A00086B1A000880
:100050006F1A0008DB2D000873390008AB3900085F
:10006000000000003F450008174700086F490008DE
:10007000A34C0008C34D000800000000EB4D000831
:100080000000000000000000000000000000000070
:10009000274E000800000000854E0008874E00082B
:1000A00000000000894E0008000000000000000071
:1000B0008B4E00088D4E000800000000000000007C
:1000C000FDB5B6B03E9801AA0023002418C20691DF
:1000D00004A93B2288540F9319A8401C33900F2089
:1000E0006946C87013E0379C3500369F2178069822
:1000F000B8470690002800D140E10F98401C0F90AF
:10010000641C6D1EF2D13697379880193790379856
:10011000007825280ED1002009900A900B900C90B1
:100120000D900E90002102240420189008201490B5
:10013000379D0FE001AA0021C943379801F0D2F89A
:10014000060001D10F981BE1CDD50126DCE70800A0
:10015000012101436D1C28782028F8D023280BD0DA
:100160002B2804D02D2804D0302808D00AE02143C1
:10017000F0E708001899ECE708000821E9E7080013
:100180001021E6E72A280FD1389802681068121D5E
:10019000389B1A601190002804D542421192080041
:1001A000189901436D1C12E000201190B84A09E033
:1001B000119B934205DA9E00F3185B001818303843
:1001C00011906D1C28780300303B0A2BF0D328785F
:1001D0002E2803D00020C043109027E06D1C287803
:1001E0002A2808D1389800680268001D389B1860DA
:1001F00010926D1C1AE02D2802D12D226D1C00E0FA
:10020000002200201090A24B0BE0002A08D1109E83
:100210009E4205DAB700BE197600301830381090CB
:100220006D1C28780600303E0A2EEED304A8018704
:100230002E78310056487844FF30573001F064F88A
:10024000002801D06D1C00E0002604A83A21465485
:10025000405C682804D1287868280BD1622005E02A
:100260006C2807D128786C2804D1712004A93A227F
:1002700088546D1C24A80890287869460870681C6A
:100280003790684605782800253834D01C3800D1CE
:100290009AE1001F022800D896E10E3831D0401FA5
:1002A00001D100F022FD093800D18DE1801E01D17D
:1002B00000F0B9FD401E01D100F065FD401E02288E
:1002C00000D881E1001F01D100F05DFD401F00D189
:1002D000D0E0401E01D100F008FD401E78D0C01EC5
:1002E00027D0801E01D100F000FDC01E01D100F01A
:1002F000FCFC00F0B7FD252024A90870012009901E
:1003000034E06C2004A93A228854389800680268C6
:10031000001D38990860002A53D104A83B21405C95
:1003200000284AD00024E44358487844FF305F3026
:1003300018E004A83A21405C6C28E6D038980068A0
:100340000468001D389908600794002C22D104A885
:100350003B21405C002815D00024E4434D487844FC
:10036000FF30333000F0DEFF201A07D124AA04A9A1
:10037000369800F086FD002800D4C8E60020C0436F
:1003800039B0F0BD44487844FF300F300790EDE7B6
:1003900088480000109D002D03D5200000F0E6FFE6
:1003A00009E02A000021200000F0E8FF002801D029
:1003B000001B00E028000A90D8E7384A7A44FF3250
:1003C000233A04A9369800F0E6FD0028CED5D5E7FB
:1003D000389800680268001D389908600020C04302
:1003E0000021104004AA03C224A80790089B3C24C3
:1003F00004A803C8002904D1002802D1109A002AB9
:1004000014D0641E6D46ED7805403035EEB23A2EBC
:1004100000DB27351D5500090A071043090901D1E2
:10042000002803D0079A1D19AA42EAD33C20001BDA
:100430000A90191907911099884207DA081A0C9046
:1004400004A8018FAF4A0A4002878FE700298DD5A3
:1004500004A93822895C14220A40102A86D11199F5
:10046000099A891A0C9A891A081A002800DC7DE773
:100470000C907BE704A83B21415C002910D00024AC
:10048000E4434F487844FF3039306BE7E4470000DD
:10049000CBCCCC0CBC470000D4470000F047000098
:1004A0003A21405C62286BD068281CD06A2847D06B
:1004B0006C2806D0712855D0742833D07A2823D0E0
:1004C0006FE0389800680168001D389A10600029B4
:1004D00006D10024E4433B487844FF30173841E715
:1004E0000F98086042E7389800680168001D389A44
:1004F0001060002905D10024E44332487844C43018
:1005000030E70F98088031E7389800680168001DCF
:10051000389A10600029E3D10024E4432948784444
:10052000A2301FE7389800680168001D389A1060F3
:100530000029D5D10024E44322487844863011E7CD
:10054000389800680268001D38990860002A05D1B3
:100550000024E4431B4878446A3003E70F98C1172E
:1005600003C203E7389800680268001D38990860E4
:10057000002AF3D10024E443124878444630F1E6DF
:10058000389800680168001D389A1060002905D16C
:100590000024E4430B4878442A30E3E60F980870BF
:1005A000E4E6389800680168001D389A1060002958
:1005B00096D10024E443034878440830D2E600BFD3
:1005C000604600007446000038980268D21D07207B
:1005D00082433898026003CA389B1A6004AA03C297
:1005E000C80F02D009982D210AE004A8008F2042EC
:1005F00002D009982B2103E0C00705D509982021D6
:1006000024AA1154401C099024A80999431807935F
:1006100019AA04A803C816AC03C4684600782021B0
:10062000014368468170612909D01098002801D5DE
:10063000062003E003D1672901D10120109004A80E
:1006400003C8080041004915491C14D1000312D009
:1006500003200A90613D1A2D04D254497944FF3198
:100660004D3103E052497944FF31473103221800EC
:1006700000F0AAFE7AE604A803C808004100491564
:10068000491C0BD1000309D103200A90613D1A2DAA
:1006900018D348497944FF311D31E7E704A803C85E
:1006A00034AB03C334A830C8BEA003C820402940DF
:1006B00080256D03A9420AD2002634AB30CB6040BE
:1006C00069400EE03C497944FF311139CEE7080D0D
:1006D000B1A6C0CE361834A803C8B44D0D40B049F9
:1006E000294304AB03C368468078612811D1079879
:1006F00030210170811C079169460978612903D175
:10070000782102E0EFFF0000582141700998801C19
:10071000099004A803C8A3A430CC04400D4002D122
:10072000002C00D185E168468078612800D0BFE0C8
:100730001098002801D5212000E0401C1590159F3D
:100740007F1C16A803C80022002300F04AFE04A85C
:1007500030C802D2802000064540361F039619A9F2
:100760000A7019A8461C002F59DD2000290000221C
:1007700080235B0300F04EFE51D869004A0D110042
:100780001C31002A1AD0002918DDB64A914206DB36
:1007900010052900802212061140014312E0834A0D
:1007A0002A400805104305000EE000BFE4440000A5
:1007B000E4440000E8440000E044000029008022F6
:1007C0001206114000240D002000290000F03CFE1C
:1007D0001690FF1F002F09DD00F070FE02000B00D5
:1007E0002000290000F0D7FE04000D00F01D0721B5
:1007F0000F226B46DA70169A002A0BDD491E09D4C7
:10080000401E6E46F678164006701211F4E7401E40
:1008100000220270491EFAD5C61D002FA5DC19A8BA
:100820003399711A19AA521C159B0C00994200DDCC
:100830001C00002C35D48C4206DA411C095D0829C5
:1008400002DB6946C97800E00021230019ADED18EC
:1008500001E0641E6D1E5B1E2E788E42F9D00F29BA
:1008600004D1411CC95C491C401CC154002B04D557
:1008700019AA641C0398001D0390611E11D453181B
:10088000684600781D783035EEB23A2E02DB06005D
:100890003A3EAD191D70491E5B1E0029F2D569460E
:1008A00008701098002800D4C2E0601E1090BFE0CD
:1008B00016A830C86D006D086B49300048436C497C
:1008C00000F0F6FE039007200399401A05DD0200B0
:1008D0002000290000F04FFC0AE042420020654958
:1008E00000F049FC02000B002000290000F03AFF54
:1008F0006A469278662A02D1039A0A3200E00622FA
:10090000109B9A18142A00DD142219AB30241C7095
:100910005C1C02E016A803C8159A002A48DD16AB35
:1009200003C3159216A803C800F0A0FD2390064645
:100930000834189D30000A2100F0BDFE0F00300081
:100940000A2100F0B8FE06003037601E0770300044
:100950000A2100F0B0FE0F0030000A2100F0ABFECB
:100960000600A41E303727706D1EE3D10834159899
:10097000083815900028CDDD239800F08FFD020087
:100980000B0016A803C800F006FE00223A4B00F048
:100990004AFF16AA03C2C5E702FCFFFFFFFFFFFFE5
:1009A0000000E03FFFFFFFFFFFFFFF7FFFFF0F8023
:1009B0003398201A19A94A1C039902E0401E491EC7
:1009C000521C1378302BF9D0039169468978662937
:1009D00002D10399491C06E069468978652901D14D
:1009E000012100E00021109B5C18A04200DA441EA7
:1009F000002C1DD4844204DA105D342801DD392135
:100A000000E030212300501EC51801E0641E6D1E59
:100A10005B1E2E788E42F9D0392902D1D15C491C57
:100A2000D154002B04D50200641C0398401C039091
:100A3000039D1600684600786946487000F05CFC2B
:100A4000406A007869460870109F20B2002803DCD5
:100A50000124064E7E4414366846807866280DD1FF
:100A60006D1C25E0FF070000977500003442000070
:100A7000A08601000000F03F84D797416846807847
:100A8000672848D128B20321C943884249DBB842CC
:100A900047DA6D1C04A8008F1499C0B2084203D134
:100AA00020B2B84200DA070028B23F1A00D500276A
:100AB0000A99079840182AB2002A00DDB5E0491CBF
:100AC0000A9130210170002F05DC04A8008F1499D1
:100AD000C0B2084206D00A98411C0A9169460978BA
:100AE000079A115428B241428F4200DA7D422DB25A
:100AF00068420D907D1920B2854200DA2C0024B2A4
:100B00000B942200310007980A9BC01800F05CFC8F
:100B1000281B0E90CFE068464078612818D17020DD
:100B20001BE020B2B84206DA04A9098F149AC9B2B0
:100B3000114200D107007F1E00D50027684640788B
:100B4000672802D16520694607E04520694604E030
:100B500068464078412801D1502048700A98411CCD
:100B60000A913178079A1154711C002F05DC04A8F2
:100B7000008F149AC0B2104219D00A98421C0A92EF
:100B80006A461278079B1A54002F10DD641E20B2AB
:100B9000874200DA3C0022B207980A9BC01800F096
:100BA00013FC24B20A9800190A90381B0D9007987C
:100BB0000A99401869464978017029B2002903D47E
:100BC0002B214170861C03E02D224270861C4D4271
:100BD000002414A928000D0005E00A2100F068FD9A
:100BE0002970641C6D1C00B20028F6DC012C08DCA6
:100BF0006846407820210143652902D130203070B9
:100C0000761C002C09D130203070761C07E0641E61
:100C100014A8005D30303070761C002CF7DC07988B
:100C20000A994018301A0B9045E021B291421BDA24
:100C300022B2310000F0C8FB24B20A9800190A90D1
:100C40002DB2291B0D91002F05DC04A9098F149AE0
:100C5000C9B2114206D069460978079A11540B9817
:100C6000401C0B900E9726E0310000F0ADFB28B23F
:100C70000A9909180A91641B002F05DC04AA128F37
:100C8000149BD2B21A4205D04A1C0A926A461278C4
:100C9000079B5A5421B28F4200DA3C0022B231182D
:100CA00007980A9BC01800F08FFB24B20A9800191D
:100CB0000A90381B0D9004A83821405C1421014093
:100CC000102901D0FFF752FB09980A9940180D9995
:100CD00040180B9940180E9940181199884201DB71
:100CE000FFF744FB081AFFF7C3FB04AA3A20105C85
:100CF000622808D068280ED06A2814D06C281DD02D
:100D0000712810D01AE0389801680868091D389BCE
:100D10001960C0B218E0389801680868091D389B4E
:100D2000196080B210E038980368DB1D0720834308
:100D30003898036003CB389C236006E0389801683C
:100D40000868091D389B1960002104AB03C3108F8C
:100D50001499C0B208425BD004A803C8002901D18D
:100D6000002855D0684600782021014378294FD1CA
:100D7000099824A930220A54401C421C09926A4650
:100D800012780A5444E004AA3A20105C622808D081
:100D900068280ED06A2814D06C281DD0712810D075
:100DA0001AE0389801680868091D389B196040B23C
:100DB00018E0389801680868091D389B196000B26E
:100DC00010E038980368DB1D0720834338980360E0
:100DD00003CB389D2B6006E0389801680868091D30
:100DE000389B1960C11704AB03C3002902DA0998C4
:100DF0002D2109E0108F204202D009982B2103E019
:100E0000C00705D50998202124AA1154401C099037
:100E100024A80999401807906846017804A800F0B2
:100E20001AF9FFF7A3FA04A83A21405C6C280BD00A
:100E300001200990389800680168001D389A1060F8
:100E400024A80170FFF792FA389800680168001D25
:100E5000389A1060149100201590C043109014AA85
:100E6000FFF7AFFA252024A90870012009906846F1
:100E70000078002801D1FFF779FA4D700994FFF747
:100E800075FAFEB506000D001700686B6969401A17
:100E9000296A401AA969401A696A401AE969401A20
:100EA000A96A401A01903820285C400710D42020FD
:100EB00069460870019800280ADD019C01236A46F2
:100EC0002900300000F080F9002860D1641EF5D1BF
:100ED0003A006B692900300000F076F9002856D1FD
:100EE0003027684607702C6A002C09DD01236A460A
:100EF0002900300000F068F9002848D1641EF5D1BF
:100F0000AB69EA682900300000F05EF900283ED1A4
:100F1000684607706C6A002C09DD01236A462900C7
:100F2000300000F051F9002831D1641EF5D1EB6991
:100F3000E868A96942182900300000F045F9002846
:100F400025D168460770AC6A002C09DD01236A468A
:100F50002900300000F038F9002818D1641EF5D1BE
:100F60003820285C400710D5202069460870019879
:100F700000280ADD019C01236A462900300000F0A8
:100F800023F9002803D1641EF5D1002001E00020E0
:100F9000C04303B0F0BDF0B5A7B004000D001600CB
:100FA0002F6B002F00D5854F00F0FFFC696B0818F0
:100FB00003A9002200230CC1812838D20292069492
:100FC0000095002425E0AF4234DB009840694019C9
:100FD00081280BD30098446307AA00990698FFF76D
:100FE00050FF0290002825D4009844610098406981
:100FF00005902A0001A907A8059BC01800F0E4F994
:1010000005984019009948613068002812D0361DB3
:101010007F1B002F0EDD03AA316801A800F067F9DD
:10102000050004D430680028CDD16D1ECBD500203A
:10103000C0430EE0069B009C0298002804D107AA3A
:1010400021001800FFF71DFF002802D10021616177
:10105000616327B0F0BDF2B586B0040025696F2941
:1010600001D1082707E0084620210143782901D053
:101070000A2700E010273C2603CC083C04AA03C240
:101080006A46127E642A03D06A46127E692A09D112
:10109000002907DA04A803C800220023121A8B4192
:1010A00004A80CC004A803C800290DD100280BD146
:1010B000206B002808D1082F3BD13820205C000786
:1010C00037D53B26302033E00294009504A830C881
:1010D000761E0196200029003A00FB1700F089FCDB
:1010E0003032D0B23A2803DB6846007E51381218FD
:1010F00000988255200029003A00FB1700F079FC87
:1011000004000D0001D1002C05D00298C0680099A0
:1011100089198842DCD3029C009D082F09D1382010
:10112000205C000705D5A85D302802D0761E30204F
:10113000A8553C20801BA061A919E160216B884261
:1011400006DA081A2062208F1D490140218710E02D
:1011500000290ED53821615C14220A40102A08D1DA
:10116000616B6269891A226A891A081A002800DDEF
:10117000206207B0F0BDF8B50026124F04000D0044
:10118000009214E0C00707D532003B002000290080
:1011900000F049FB04000D00009840100090300062
:1011A000390032003B0000F03EFB06000F000098C3
:1011B0000028E7D120002900F4BD0000FFFFFF7FD9
:1011C000EFFF000000002440F8B50024002B11D0F0
:1011D00007000E0014001D002178B068B847B06009
:1011E000002809D0F06A401CF0620020641C6D1ECB
:1011F000F2D104002000F2BD0020C043F9E7F1B4B1
:101200000168421841684808131800988068C907A7
:101210001ED5494640181BE01778521C0770401C29
:10122000761EF9D1002C13D01678521C89080D4077
:10123000032D01D11578521C290271184D42411914
:10124000A41C05D00D78491C0570401C641EF9D102
:101250009A420FD01178521C032503260E4002D16A
:101260001678F61C521C0C090F2CD9D114780F34A7
:10127000521CD5E700980C30F2BC704720487047EC
:1012800030B45368D41803E05B1C491E641C401C36
:10129000042B06DA002904D0057825700578002D86
:1012A000F2D1536030BC704738B500290ED01D0014
:1012B0001400FFF7E5FF616820006A6B9047012288
:1012C000D243811A02D0491E02D004E0012000E07E
:1012D0000020C04332BD0021616032BD80B5DA6BB1
:1012E000904702BD80B5064BFFF7DEFF02BD80B51B
:1012F000034BFFF7F3FF02BD0248704700000000F8
:101300004000002008000020C9B202788A4203D0C1
:10131000401C002AF9D1002070470268531C03606A
:101320001170704780B5002801D100BF07A00649A1
:101330000B68002B03D022220021984701E000F027
:101340008DFB222002BD000040020020636F6E73FF
:10135000747261696E742068616E646C65723A20A3
:10136000626164206D65737361676500431C017879
:10137000401C0942FBD1C01A70472E00C9B2521E50
:1013800005D30378401C8B42F9D1401E70470020E2
:101390007047430070B4103A03D378C9103A78C04C
:1013A000FBD2530701D318C918C001D508C908C01A
:1013B000D20704D30B880380891C801C002A01D526
:1013C0000B78037070BC70478B0701D18307E1D0A5
:1013D000124205D00B78491C0370401C521EF9D1F3
:1013E000704730B4012464054D00EC420BD85D0019
:1013F000EC4208D80C001C4364000443144304D29C
:10140000994200D1904230BC7047FCD08B42FAD157
:101410008242F8E730B4012464054D00EC420BD859
:101420005D00EC4208D80C001C43640004431443E4
:1014300004D28B4200D1824230BC7047FCD099422A
:10144000FAD19042F8E7FEE7F4464A1805D200F0D8
:101450000FF801D580174008604700F009F8012116
:10146000C907884200D90800404260474A1812D292
:10147000400DC90208430121C9070843520D40210C
:101480000901521A521C06D452421F3201D4D040D4
:101490007047C017704700207047FEE701004222E6
:1014A0001201D21E004207D002D4521E0018FCD5F1
:1014B000C10A400512058918704700000100EED5E9
:1014C0004042F446FFF7EBFF0122D2071143604789
:1014D000F0B40125ED070F005F404FD48B4200D1DF
:1014E000824205D98446100062468C461900634644
:1014F000DF184C18640D7F0D3AD0661C760537D086
:10150000E61B352E34DCDB022B43DB0A0C0DC90253
:101510002943C912202E0DDB1700203E06D01F00E4
:10152000F741F3405F400026012A7741C01871411E
:101530000DD217E01700F741F2405740F3415A40EF
:10154000B340F3405A400026801859410AD3A21CE8
:1015500052050FD0C207012F724117004008CB0778
:1015600018434908641C24054208AF417041614199
:10157000F0BC7047641C21050020F9E76B4010E0C7
:101580006B40ABE7F742F3D1E943F1E72442EFD1F7
:1015900000200021ECE7F0B40125ED070F005F40CB
:1015A000EED40C00871A9C4105D2C01BA141D21970
:1015B000634169406B40AE0ADF184C18F442E1D237
:1015C000640D7F0DE2D0E61B362ED1DCDB022B430F
:1015D000DB0AA4460C0DC9022943C90A012E28DCE6
:1015E00004D1D6075208DF073A435B08EF0A764278
:1015F0009041994114D039423BD1B61940414941FB
:10160000761C394204D1761C001849413942FAD07F
:10161000B9436746B74208D9A41B24052143A7E76D
:101620000042EAD13642E8D1A2E7E40AE10700200D
:101630009EE7202E0BDD203E1F00F340F7415F4068
:10164000012A002257417E42984191410BE0170048
:10165000F741F2405740F3415A40B340F3405A40FB
:101660007E42904199410A0303D2641EB61940415B
:1016700049410027641E24054208AE41784161417A
:10168000F0BC7047F446002804D4494200F013F837
:10169000404260474042002905D45FD000F00BF87B
:1016A000404249426047494200F005F849426047DC
:1016B00003460B43E6D40022030A8B420BD20309F4
:1016C0008B4219D243088B422ED2411A00D20146D6
:1016D000524110467047FF2209023FD012068B424A
:1016E00005D3121209028B4201D312120902030917
:1016F0008B4219D300E0090AC3098B4201D3CB0105
:10170000C01A524183098B4201D38B01C01A524146
:1017100043098B4201D34B01C01A524103098B424A
:1017200001D30B01C01A5241C3088B4201D3CB0035
:10173000C01A524183088B4201D38B00C01A524118
:1017400043088B4201D34B00C01A5241884200D358
:10175000401A5241CFD201461046704708B500F0FA
:1017600083F908BDF0B40E005E400125ED072E4060
:10177000B446AE0ADF184C18F4423BD2F74241D2CD
:10178000640D43D07F0D38D0E41BC902DB0229432E
:101790002B43CF0ADB0A0600B61A9F4104D2641E0F
:1017A000B6197F41B6185F416812800D24180018E1
:1017B000844222DAE80C0021B6197F41B61A9F4113
:1017C00002D2B6185F413F1C40414941F4D3241C6A
:1017D00021DD2405B6197F41B61A9F4105D3374351
:1017E000C60737430026012F7041614166463143E9
:1017F000F0BC7047FCD1F74205D20020C143490537
:101800004908F3E704D00020C143F1E77F0DFAD087
:1018100000206146ECE72442FAD1401C61410F03ED
:10182000F6D30020E2E7F0B50E005E400125ED079B
:101830002E40B446AE0ADF184C18F44208D2F742E4
:101840000ED2640D01D07F0D12D100206146F0BD93
:1018500005D1F74201D87F0D05D10020C143F0BD6D
:10186000FBD1640DF9D00020C143490549088FE040
:10187000E419C902DB0229432B43DB0A460DC002EF
:1018800031438E4630B487B295B27D432E0CADB253
:10189000140C7C43A419260C240425439CB27C43DD
:1018A000A419190C7943270CC919A4B20F043C439D
:1018B000090C000C97B247432E0CBE193543ADB24C
:1018C000170C4743360CBF19A6B2BF193E04354367
:1018D000240C3E0C36199FB24743BF19BCB23E0CD4
:1018E00089191F0C47437F183E043443390C704656
:1018F00080B297B247432E0CBE193543ADB2170CD8
:101900004743360CBF19A6B2BF193E043543240C19
:101910003E0C36199FB24743BF19BCB23E0C891921
:101920001F0C47437F183E043443390C77463F0C65
:1019300090B278432E0C80190604ADB22E43050CEC
:10194000A0B22D18120C7A435019020C80B2240C4C
:10195000A4189AB27A43121914042043120C89185D
:101960001B0C7B43C91830BCEF0A394203D1B619AE
:1019700040414941641E6F12BF0DE41B0BDBFF1990
:10198000BC4211DA240500274208AE41784161418A
:1019900066463143F0BD641C05D1401C6141CF0255
:1019A00001D34908F4E750E75DE780B5FFF766FC2F
:1019B000006C02BD30B4DC0F03D05B42524200D257
:1019C0005B1E0D106C4013D0F446002502D3494233
:1019D0004042A94100F00DF8E40703D35B425242B4
:1019E000AB41244202D549424042A94130BC604744
:1019F00030BC124224D0994228D970B500251B4230
:101A000002D00C00002109E000240126491864419D
:101A1000944200D3A41A7641F8D33100012601E0A4
:101A2000764109D2001864416D41A41A9D41F7D254
:101A3000A4185D41B619F5D3300022002B0070BD0B
:101A40001B42D8D108B500F011F808BD01D1904271
:101A5000D3D202000B0000210020704780B5012086
:101A600000F006F801BDFEE77047FEE77047FEE7AD
:101A700080B500BF00BF024A11001820ABBEFBE7D3
:101A800026000200FEB50400002C01D101206BE20B
:101A9000AF4800680C2101400091AD4805688020E6
:101AA0004002054001272068384000285DD000989A
:101AB000082806D000980C280CD1802040028542CE
:101AC00008D1A448006880034FD5606800284CD135
:101AD000012049E2606880214902884206D19D4880
:101AE0000168802252020A4302601FE06068A02160
:101AF000C90288420BD1974801688022D2020A436A
:101B000002600168802252020A4302600EE091489E
:101B10000168C14A0A4002600168802252021140F5
:101B2000019101990168BD4A0A400260606800287D
:101B30000DD000F081FB060086480068800314D4B5
:101B400000F07AFB801B6528F6D303200CE200F03E
:101B500073FB06007F480068800306D500F06CFB2D
:101B6000801B6528F6D30320FEE12078800758D536
:101B7000E0682022104205D076490B681A430A60BB
:101B8000202188430099042904D000990C292BD1E5
:101B9000002D29D16F490A68520703D5002801D1C9
:101BA0000120E1E1B34A1568B34B2B4025692D02B2
:101BB0001D4315600A6809239A431043086000F02A
:101BC000C3FAAE49624A126812091207120F895C01
:101BD000C840AB490860002000F034FB0100C9B2E6
:101BE00000291ED0C0B2BFE1002829D0594D296874
:101BF000092291430843286000F01EFB0600286874
:101C0000400706D400F018FB801B0328F7D30320FD
:101C1000AAE198480168984A0A40216909021143DB
:101C200001602078C0066AD50098002843D1494851
:101C30000068800516D5A069002813D1012093E122
:101C4000444D286801218843286000F0F5FA060019
:101C500028684007E5D500F0EFFA801B0328F7D38A
:101C6000032081E183480168C04A0A40216A114388
:101C7000016001680902090AE26912060A4302606A
:101C8000206A410B491C38008840802109024843E2
:101C90007A492F4A126812091207120F895CC8404C
:101CA00077490860002000F0CDFA0100C9B2002990
:101CB00025D0C0B258E1A069002837D0254D28684A
:101CC000802149000143296000F0B6FA0600286827
:101CD000800506D400F0B0FA801B0328F7D3032058
:101CE00042E164480168A14A0A40216A1143016047
:101CF00001680902090AE26912060A4302602078B3
:101D000000073BD56069002826D0994D28683843E4
:101D1000286000F091FA0600286880072ED400F0B1
:101D20008BFA801B0328F7D303201DE1094D286897
:101D300090490140296000F07FFA0600286880057C
:101D4000DDD500F079FA801B0328F7D303200BE1DF
:101D50000C10024000100240854D28680121884384
:101D6000286000F069FA06002868800706D500F0B0
:101D700063FA801B0328F7D30320F5E0207840079F
:101D800000D487E00025802040057B490968014098
:101D9000002904D178490A68104308603D00774F54
:101DA0008026760038683040002811D138683043EA
:101DB000386000F041FA019038683040002807D1BF
:101DC00000F03AFA0199401A6528F5D30320CBE0D8
:101DD000A068B04204D1664801680E43066028E05E
:101DE000A068002809D162480168624A0A4002607E
:101DF0000168634A0A4002601BE0A068A021C90094
:101E000088420DD15A4801688022D2000A430260FC
:101E100001680E4306600CE0FFFFFEFFFFFFFBFFC3
:101E200053480168534A0A4002600168544A0A4014
:101E30000260A06800280ED000F0FEF906004C48B1
:101E4000006880051ED400F0F7F9801B4D498842D8
:101E5000F5D3032088E000F0EFF90600444800685D
:101E600080050FD500F0E8F9801B46498842F5D37C
:101E7000032079E004100240FFE0FFFF384E000825
:101E800004000020EDB2012D04D13B480168A84AAE
:101E90000A400260606A002865D000980C2847D08C
:101EA000606A022832D1A34D2868A3490140296005
:101EB00000F0C2F907008026B604286830400028E8
:101EC00006D000F0B9F9C01B0328F4D303204BE07F
:101ED0009A4801689A4A0A40A16A1143E26A0A4391
:101EE000216B114301602868802149040143296066
:101EF00000F0A2F9040028683040002833D100F037
:101F00009BF9001B0328F6D303202DE0894C2068A1
:101F100089490140216000F08FF9050020688001A7
:101F200021D500F089F9401B0328F7D303201BE0DB
:101F3000606A012801D1012016E0804800688021F4
:101F400049020140A26A91420BD1F021890301406C
:101F5000E26A914205D1C02109040140206B81420F
:101F600001D0012000E00020FEBD00BFFF1FFFFFE9
:101F700050100240FFFEFFFF38100240007000408A
:101F8000FFFBFFFF89130000FEB50400002C01D108
:101F90000120CBE0009101256A4F38682840009964
:101FA00088420CD238680121884300990143396086
:101FB000386828400099884201D00120B6E0207896
:101FC000800706D55D480168F0229143A2680A4364
:101FD00002602068284000286BD06068022805D184
:101FE00054480068800319D401209FE060680328EA
:101FF00005D150480068800110D4012096E0606847
:10200000012805D14B480068400707D401208DE026
:1020100048480068800501D4012087E0474E3068B9
:102020000321884361680143316000F005F90190A4
:10203000606802280DD130680C210140082938D091
:1020400000F0FAF80199401A6E498842F3D3032050
:102050006CE0606803280DD130680C2101400C2928
:1020600027D000F0E9F80199401A66498842F3D375
:1020700003205BE0606801280DD130680C2101402D
:10208000042916D000F0D8F80199401A5D49884219
:10209000F3D303204AE030680C210140002908D026
:1020A00000F0CAF80199401A56498842F3D3032038
:1020B0003CE000983968294088420CD238680121F8
:1020C000884300990143396038680540009885428B
:1020D00001D001202AE02078400706D51748016882
:1020E000494A0A40E168114301602078000707D59A
:1020F00012480168454A0A402169C900114301603C
:1021000000F022F842490D4A126812091207120F14
:10211000895CC8403F490860002000F093F8010046
:10212000C9B2002901D0C0B200E00020FEBD00000D
:10213000FFFFFFEF00100240FFFFFFFE0C10024008
:10214000FFFF02FF0020024000B5274A11680C2063
:102150000840042804D008280AD00C280AD028E017
:102160002D480068C00601D52C4800E02C482BE023
:102170002C4829E02C488B0C1B071B0FC05C890DD9
:102180008907890F491C1268D20304D5254A504398
:10219000FFF791FA0CE0204A1268D20604D51F4AD4
:1021A0005043FFF788FA03E01D4A5043FFF783FAD4
:1021B0000AE01E480068400B4107490F0120491CF6
:1021C000884080210902484300BD124800687047DA
:1021D00080B5FFF7FAFF1649164A1268120A52072D
:1021E000520F895CC84002BD0C10024080B5FFF759
:1021F000ECFF0F490F4A1268D20A5207520F895C4E
:10220000C84002BD89130000FFF8FFFFFFC7FFFFB2
:10221000384E0008040000200010024000093D0074
:102220000024F40000127A00644E000804100240FA
:102230007C4E00080C10024001480068704700BF47
:102240003C02002038B5050000240A480068FA2145
:102250008900FFF730FA00F071F8002801D001245E
:1022600005E0290000220020C04300F062F82000B1
:10227000C0B232BD04000020F0B5020052B2002A04
:1022800023D503220F242F4B05006DB22540083DB6
:10229000AD0804267543060076B23440083CA40815
:1022A000042674431E59FF27BC4614000440082727
:1022B0007C436746A740BE438901C9B2024008205B
:1022C00042439140314359511AE01F4A032304000D
:1022D00064B2A40804256C431459FF251E0006406F
:1022E00008277E43B540AC438901C9B203400825A5
:1022F0006B439940214340B2800804235843115056
:10230000F0BD80B5411E80225204914201D30120CC
:102310000EE0401E0D49086003210020C043FFF776
:10232000ABFF00200A49086007200A490860002026
:1023300002BD80B540B2FFF79FFF01BD80B5FFF73A
:10234000E0FF02BD1CED00E000E400E014E000E06E
:1023500018E000E010E000E010B50400002C01D10E
:1023600001205BE04120205C002805D100204021B5
:102370006054200000F090FB24204121605420682C
:102380000068012188432168086060682449014091
:1023900020680161234821688968014022689160B2
:1023A000E168012906D1A168802212020A4321684E
:1023B0008A6005E0A168842212020A4321688A60CB
:1023C000E168022903D18021090122685160216856
:1023D0004968154A0A4321684A602168C96808406B
:1023E0002168C860206961690143A069000208434F
:1023F0002168C860E069216A0143206801602068A3
:1024000000680121014320680160002060642021F0
:102410004122A154206342216054002010BD0000DD
:10242000FFFFFFF0FF7FFFFF00800002FEB504000A
:102430000F0016001D004120205C202800D0CAE0BB
:102440000898002803D06846808C002804D180209A
:10245000800060640120BFE04020205C012801D1A1
:102460000220B9E0012040216054FFF7E5FE029010
:10247000029800901923012280210902200000F017
:102480001FFA002801D00120A6E02B0032002120F5
:102490004121605440204221605400256564089821
:1024A00060626846808C60856563029801900A9836
:1024B00000909BB292B2390089B2200000F06EF910
:1024C000002803D040202554012085E08026760096
:1024D000608DB0420DD3FF20208500200090802326
:1024E0005B04228DD2B2390089B2200000F0AEFA2E
:1024F0000CE0608D20850020009080239B04228DBD
:10250000D2B2390089B2200000F0A0FA029A0A99EA
:10251000200000F001FA00282ED1606A00782168BE
:102520008862606A401C60629948618D0918618503
:10253000218D08182085608D00282ED0208D002840
:102540002BD1029800900A9B00228021200000F0ED
:10255000B7F9002812D1608DB04211D3FF20208539
:102560000020009080235B04228DD2B2390089B212
:10257000200000F06BFA10E001202DE001202BE09C
:10258000608D20850020009080239B04228DD2B294
:10259000390089B2200000F059FA608D0028B5D1C9
:1025A000029A0A99200000F0E3F9002801D00120E6
:1025B00012E020202168C86121684968754A0A40F4
:1025C00021684A6041216054280042216054402023
:1025D0002554002000E00220FEBD0000FEB50400EE
:1025E0000F0016001D004120205C202800D0CDE007
:1025F0000898002803D06846808C002804D18020E9
:10260000800060640120C2E04020205C012801D1EC
:102610000220BCE0012040216054FFF70DFE029033
:10262000029800901923012280210902200000F065
:1026300047F9002801D00120A9E02B003200222018
:10264000412160544020422160540025656408986F
:1026500060626846808C60856563029801900A9884
:1026600000909BB292B2390089B2200000F0D4F8F9
:10267000002803D040202554012088E080267600E1
:10268000608DB0420DD3FF20208543480090802309
:102690005B04228DD2B2390089B2200000F0D6F955
:1026A0000CE0608D20853C48009080239B04228DA7
:1026B000D2B2390089B2200000F0C8F90298009027
:1026C0000A9B00220421200000F0FAF800282ED1F5
:1026D0002068406A616A0870606A401C60622C4829
:1026E000218D09182185618D08186085608D00286D
:1026F0002ED0208D00282BD1029800900A9B00221A
:102700008021200000F0DCF8002812D1608DB0425A
:1027100011D3FF2020850020009080235B04228DB0
:10272000D2B2390089B2200000F090F910E0012007
:102730002DE001202BE0608D20850020009080237B
:102740009B04228DD2B2390089B2200000F07EF9BC
:10275000608D0028B2D1029A0A99200000F008F991
:10276000002801D0012012E020202168C8612168E2
:102770004968084A0A4021684A604121605428009B
:102780004221605440202554002000E00220FEBD7C
:10279000FFFF000000E800FE00240080F8B50600FE
:1027A00014001D00079F3B48009080235B042A0013
:1027B000D2B289B2300000F049F93A0006993000EF
:1027C00000F0AAF8002801D0012024E0ADB2012DCC
:1027D00003D1E4B23068846211E0200080B2000AC4
:1027E000C0B2316888623A000699300000F094F86F
:1027F000002801D001200EE0E4B230688462009726
:10280000069B00228021300000F05AF8002801D0F9
:10281000012000E00020F2BDF8B5060014001D0004
:10282000079F1C48009000232A00D2B289B23000D2
:1028300000F00CF93A000699300000F06DF800281D
:1028400001D0012024E0ADB2012D03D1E4B2306803
:10285000846211E0200080B2000AC0B23168886250
:102860003A000699300000F057F8002801D0012006
:102870000EE0E4B2306884620097069B002240219B
:10288000300000F01DF8002801D0012000E00020F9
:10289000F2BD00000020008000B501688969890749
:1028A00002D50021026891620121026892690A4002
:1028B000002A04D10268926911430068816100BD59
:1028C000F4B504000F001D00069E206880693840A2
:1028D000B84201D1012000E0002069460978884211
:1028E00018D10020C0438542EFD0FFF7A5FC801B24
:1028F000854201D3002DE8D12020616C0143616441
:1029000041216054002001004222A1544021605422
:10291000012000E00020F2BD70B504000D0016009B
:1029200020688069800721D432002900200000F04F
:1029300048F8002801D0012019E00020C04385425A
:10294000EED0FFF779FC801B854201D3002DE7D143
:102950002020616C0143616441216054002001002A
:102960004222A15440216054012000E0002070BDAB
:10297000F8B505000E001700202428688069204063
:1029800000281CD13A003100280000F01AF8002875
:1029900013D1FFF751FCC01B864201D3002EEBD1AF
:1029A000686C2043686441202C54002001004222BE
:1029B000A95440216854012002E0012000E00020D9
:1029C000F2BDF4B504000F0010252068806928408E
:1029D000002839D02026206880693040002818D18E
:1029E0000020C0438742F5D0FFF726FC0099401A2B
:1029F000874201D3002FEDD1606C304360644120E9
:102A00002654002001004222A1544021605401209C
:102A10001BE02068C5612068C6612000FFF73CFF0D
:102A2000206840681449014020684160606C0421BE
:102A30000143616441202654002001004222A15438
:102A400040216054012000E00020F2BDF0B4049C5D
:102A500005686D68660D094F3743BD4389B2890526
:102A6000890D2943D2B212040A4313431C43006860
:102A70004460F0BC7047000000E800FEFF63FF0305
:102A80002F48016801220A4302602E480168802213
:102A900052050A430260704710B586B00400142244
:102AA000002101A800F058F82068274988421CD16D
:102AB000012026490A6802430A6009680140009122
:102AC0000099C021C90001911221029103900321B4
:102AD0000491059001A9A020C00500F047F819480D
:102AE0000168802292030A43026006B010BD10B54F
:102AF00086B004001422002101A800F02DF82068FF
:102B0000134988421AD10F480168802292020A4371
:102B1000026002200D490A6802430A600968014008
:102B200000910099C021019102900020039003219F
:102B30000491059001A9074800F018F806B010BDEF
:102B40003410024038100240005400402C10024063
:102B5000004400400004005010B5040008001100BB
:102B60000200200000F012F9200010BDF8B50200AC
:102B700000230020002032E0062403E06F4CA24234
:102B8000FAD105241F003E4004277E43B44004438D
:102B90006B489E0804277E4384516A4C2068A843F2
:102BA0004E68F60300D528432060674C2068A84390
:102BB0004E68B60300D528432060644C2068A843C3
:102BC0004E68F60200D528432060614C2068A84377
:102BD0004E68B60201D50543280020605B1C0868DA
:102BE000D840002800D1A8E00124086825009D40B5
:102BF0000540002DF2D04868022802D0486812280B
:102C00001ED1D808042670431018076A07200097C1
:102C10000F26B4461F000740042677436646BE4091
:102C2000009FB743BC460E691F0038400427784315
:102C3000864067463E43D80804277843101806624A
:102C40004868012808D04868022805D0486811283B
:102C500002D0486812281BD19668032084461F00C2
:102C6000022047436046B8408643CF68BC46180000
:102C700002277843674687403743976056682000AD
:102C8000984086434868000920409840304350608F
:102C900017680326BC461F00022047433000B84097
:102CA0006746874300974868304084461F000220EB
:102CB00047436046B840009F38431060D768BC4621
:102CC0001F00022047433000B84067468743009703
:102CD000886884461F00022047436046B840009F32
:102CE0003843D0604868C00000D477E724480768BC
:102CF00027430760124884469F08042047436046E4
:102D0000C05900900F27BC461F00300038400427F0
:102D10007843674687400098B843A027FF05BA422A
:102D200001D100242EE7174FBA4200D12AE7164CF2
:102D3000A24200D022E7022424E7F1BD001C00508B
:102D4000080001400004014004040140080401405F
:102D50000C04014000B5006989B20840002801D088
:102D6000012000E00020C0B200BD00B5D2B2002AB0
:102D700002D089B2816101E089B2816200BD0000A8
:102D80003410024000040050000800501206130ADC
:102D90001A43130C1A4300BF094205D0830705D01C
:102DA0000270401C491EF9D1704700001300103911
:102DB00006D330B41400150010393CC0FCD230BC2E
:102DC000490700D30CC000D504C0890002D302809B
:102DD000801C002900D502707047FEE703210170B6
:102DE0000421417005210A008270C1700021017127
:102DF00001214171704738B584B01400828C5500B0
:102E0000934A02920222019203AA00920123C9B2BC
:102E10000A0092B2290089B2806AFFF7DFFB00281E
:102E200007D103A8417809020078014321800120DD
:102E300000E0002005B030BD3EB5848C6400844DB8
:102E40000295DBB29BB2019300920123C9B20A0042
:102E500092B2210089B2806AFFF7C0FB002801D13D
:102E6000002000E001203EBDD0B50C0000F010FBBA
:102E700071A20CCAFEF72CFB71A20CCAFEF7D3FCA0
:102E800071A20CCAFEF76EFC06000F00714821000B
:102E900000F017FB00F0FCFA00F01CFD32003B00D4
:102EA000FEF7C1FC00F01BFDD0BD10B504002200F0
:102EB00088212000FFF79FFF002856D0A21C8A21FE
:102EC0002000FFF798FF00284FD0221D8C21200002
:102ED000FFF791FF002848D0A21D8E212000FFF7A8
:102EE0008AFF002841D02200083290212000FFF7FD
:102EF00082FF002839D022000A3292212000FFF7F9
:102F00007AFF002831D022000C3294212000FFF7F4
:102F100072FF002829D022000E3296212000FFF7F0
:102F20006AFF002821D02200103298212000FFF7EC
:102F300062FF002819D0220012329A212000FFF7E8
:102F40005AFF002811D0220014329C212000FFF7E4
:102F500052FF002809D0220016329E212000FFF7E0
:102F60004AFF002801D0012000E0002010BD1CB560
:102F70000400012322001832A1212000FFF75CFF8A
:102F800000283CD122001A32E1212000FFF733FF54
:102F9000002834D0012322001C32E3212000FFF757
:102FA0004BFF00282BD16A46E4212000FFF723FFC6
:102FB000002824D000AA921CE5212000FFF71BFF67
:102FC00000281CD0012322002232E7212000FFF735
:102FD00033FF002813D1684600880001FF21090152
:102FE00001406846008800120007000F0843E08394
:102FF0006846408880B200092084012000E000205B
:1030000016BD14B583B0828C5400BD4A02920122D1
:10301000019203AA00920123C9B20A0092B22100D0
:1030200089B2806AFFF702FA002801D1002000E08F
:10303000012004B010BD000066666666661271402D
:103040003BD0F9DF00A12040A27F828B1535D23F13
:103050008813000080E6C5477CB504000D00A08CF5
:10306000762804D0A08C772801D000206EE00123C0
:1030700022003232D0212000FFF7DEFE002801D0EE
:10308000002063E03220205C582805D03220205CEC
:10309000602801D0002059E0B622E0212000FFF78F
:1030A000B0FF002801D0002050E001236A46F32140
:1030B0002000FFF7C1FE0028F7D168460078C0075E
:1030C000F3D42000FFF7F1FE002801D100203DE0FD
:1030D0003220205C602806D12000FFF748FF00283E
:1030E00001D1002032E06879400169788A0002430A
:1030F000D2B2F5212000FFF784FF002801D0002084
:1031000024E02878012801D100202870E8784001C7
:10311000A978890001432E780E433220205C602874
:1031200009D12A79D2B2F2212000FFF76AFF0028E4
:1031300001D000200AE03200D2B2F4212000FFF7D3
:1031400060FF002801D0002000E0012076BD30B4EF
:10315000CB10048864001B1B0224045F6343DB1252
:103160000C110588641B09110588491B4C43211368
:103170000424005F4143881318181060106805216B
:1031800048438030001230BC7047F3B583B0D3178A
:10319000B9A430CCA4185D412000290022002B00E6
:1031A00000F0CEFB039A1023D25ED31700F0C8FBC9
:1031B00006000F0020002900039A0E23D25ED317C9
:1031C00000F0BEFB4904C20B114340048019794151
:1031D0006E4602000B0003980C21405EC117C1002F
:1031E00000208018594103C6083E20002900220013
:1031F0002B0000F0A5FB039A0A23D25ED31700F040
:103200009FFB000A0A061043091206000F00200067
:103210002900039A0823D25ED31700F091FB09031B
:10322000020D1143000380197941002280231B0203
:1032300012184B4110001900039AD288002300F0A5
:103240007FFB04000D006C10ED17002D03D1002C46
:1032500001D1002051E00498802149030A1AD317B4
:10326000DB0750080343D207684603C8121A8B4194
:1032700010001900834A002300F062FB22002B009B
:10328000FEF798FB04000D0003981621405EC1175D
:1032900022002B00520BDE0432435B1300F050FB84
:1032A00022002B00520BDE0432435B1300F048FB7C
:1032B00006000F00760EF80106437F1603981421CE
:1032C000405EC11722002B0000F03AFBC00C4A03FD
:1032D0001043C91436196F4180197941000A0A0652
:1032E00010430912039A1223D25ED3171B01140F45
:1032F0002343120112184B41100005B0F0BD00002D
:103300001027000010B55E4BD21889031E23C35E40
:103310001B05C91A2023C35E5343C91A8023DB014E
:10332000C918C9132223C35653439B12047F624317
:10333000D21280242402121953439A1280239B0331
:10334000D2181A23C35E5A4380239B01D2189213CA
:103350005143CA13CB135A43D211007E424310117A
:10336000081A002801D50020FFE74749884202DB00
:10337000C8204005FFE7001310BDF0B585B0070079
:103380000E0014001D003220385C602804D0002D8F
:1033900001D0002028600025002D01D0082300E086
:1033A0000623DBB203AAF7213800FFF745FD00280A
:1033B00001D0002031E00194029603AC2078000394
:1033C000617809010143A0780600F6B23609F6B229
:1033D0000E43E078000321790A010243607901007D
:1033E000C9B20909C9B211436A463800FFF7AFFEF6
:1033F00002990860009A31003800FFF7C6FE019973
:103400000860002D08D0A0790002E1790143009AFC
:103410003800FFF777FF2860012005B0F0BD7FB5C9
:103420000D0014001E00002E01D06B4600E00023AA
:1034300001AA02A9FFF7A1FF00281AD0029800F004
:10344000A9FA124900F03DF82860019800F092FABC
:103450008721C90500F035F82060002E07D00098BC
:1034600000F088FA8921C90500F02BF830600120AE
:1034700000E0002004B070BD000CFEFFFFFFFFFF66
:1034800000D4FEFF350C0000010000190000C84206
:10349000012212060118CA420AD28A420DD83822E5
:1034A000120609098918C20FD20711434007704755
:1034B00000D049080909014301E0C10FC9070020F4
:1034C000704730B405004D400122D20715404B181B
:1034D0000418240E28D01B0E2FD0FF2C34D0FF2B25
:1034E00037D0E41A00020902104311434308480888
:1034F000D10D1B1A02D2641EDB181B18DB18834285
:1035000000D31B1A4941F9D37F3426DDFE2C08DA9B
:10351000E4054808C907194391416041284330BC7C
:103520007047FF20C005F9E728001B0E03D0FF2BD2
:10353000F5D14902F3D0D043F1E7FF2C01D140028D
:10354000F9D1FF20C005E9E74002F4D1FF2BF8D103
:10355000F1E728004902E2D0EDE70B020020244207
:10356000DCD15B129B1CD9D9D805D7E7F8B586B05A
:103570004B005B155B1C09D14B005B155B1C02D13A
:103580000A0300D04DE1CA0F29D14AE102AB03C3BF
:10359000C8A430CC02A803C8294080277F03B942C1
:1035A00008D20023009302ABC0CB704079400600E4
:1035B0000F0009E0080D9C4E3618009602A8C0C8FE
:1035C0009F493940994F0F4334403D4004D1002C6E
:1035D00002D10020964924E13900C80F04D000BF71
:1035E00000BFB4A003C81CE13000002907DA0024A2
:1035F00080252D06241A8D4102A830C001E002ABBF
:1036000003C38CA430CC002D06DA002080210906EB
:10361000001BA94104000D0002A803C8A94222DC36
:1036200001DBA0421FD279004B0D591C002B11D099
:1036300000290FDD814B994206DB180539008023F4
:103640001B061940014309E07D4B3B400805184328
:10365000070005E0390080231B06194000260F00F3
:103660000098401E009001920020764932003B00F5
:10367000FDF72EFF04000D000020734932003B00CF
:10368000FDF726FF02000B0020002900FEF76AF874
:1036900004AA03C204A80CC804A803C8FEF7C3F810
:1036A00006000F0069A003C832003B00FEF7BBF81C
:1036B00068A20CCAFDF70CFF32003B00FEF7B3F81E
:1036C00066A20CCAFDF704FF32003B00FEF7ABF820
:1036D00064A20CCAFDF7FCFE32003B00FEF7A3F823
:1036E00062A20CCAFDF7F4FE32003B00FEF79BF825
:1036F00060A20CCAFDF7ECFE32003B00FEF793F827
:103700005EA20CCAFDF7E4FE32003B00FEF78BF828
:1037100002000B0020002900FDF73DFF04AA0CCA9F
:10372000FEF781F804AA03C20098FDF7C7FE060061
:103730000F000198002818D152A003C832003B00A6
:10374000FEF771F804AA0CCAFDF725FF22002B0032
:10375000FDF7BEFE04000D004CA003C832003B0084
:10376000FEF761F822002B0059E036DD00204949C0
:1037700022002B00FEF757F80290039146A003C8E1
:1037800022002B00FEF74FF80090019144A003C8DF
:1037900032003B00FEF747F804000D0004A803C800
:1037A00041A20CCAFEF73FF802000B0020002900DE
:1037B000FDF7F1FE009A019BFDF78AFE029A039B3A
:1037C000FDF786FE04000D000020394932003B0061
:1037D000FEF729F822002B0021E038A003C82200C0
:1037E0002B00FEF720F80090019136A003C82200BC
:1037F0002B00FEF718F804000D0004A803C833A23C
:103800000CCAFEF710F802000B0020002900FDF79B
:10381000C2FE009A019BFDF75BFE32003B00FDF704
:1038200057FE07B0F0BD000002FCFFFF0000E03FC4
:103830000000F0FFCD3B7F669EA0E63FFF07000043
:10384000FFFF0F800000F0BF0000F03FF7DE29BF50
:10385000D8F8C23FF4B3FECC1A99C33F62CB68D903
:103860006F46C73FC6C912DAC471CC3F4AE98A9491
:103870002449D23FF75F97999999D93FBC5555553F
:103880005555E53F9EBC9AF71C7D7F3E000000C069
:10389000422EE63F7BCBDB3FABA6320EE526553E04
:1038A0007CC4BC7FDE27743E0EE526157BCBDB3F58
:1038B0001344D33FFFFFFFFFFFFFFF7F00000060C7
:1038C0004715F73F44DF5DF80BAE543EFE822B6593
:1038D0004715F73F80B50022FFF748FE04BD0122DF
:1038E00052054B18DA4201D9581570475B0D072273
:1038F000D2019B1A10D9FF2B1DD2DB050122D20762
:103900000A4013430903020D1143490AC200524100
:1039100000D9491CC81870470AD1800A0A0302431B
:103920005212921C04D9D3070B40D005184370479C
:10393000C80FC0077047C80F0002FF30C0057047AE
:1039400030B4434351435D18010C0C00130C5C432D
:103950002D1980B2434392B251430024C9186441E7
:1039600024040B04090C09195043C018694130BCE8
:103970007047FEE79D2102000AD002D4491E92182A
:10398000FCD5C905100A1206524100D3012A48414C
:10399000704700009D210200EED55242F446FFF729
:1039A000EBFF0122D20710436047FEE710B5040089
:1039B000002C01D1012035E0A0690028FFD1606F03
:1039C000002805D10020702160542000FFF78FF8F7
:1039D000242060672068006801218843216808600E
:1039E000200000F09DF8012801D101201AE0606A52
:1039F000002802D0200000F025FA206840680A491B
:103A0000014020684160206880682A21884321683D
:103A1000886020680068012101432068016020005F
:103A200000F082FA10BD0000FFB7FFFFFEB50400F2
:103A30001D00606F202870D10E00002E05D0684652
:103A4000028068460088002801D1012066E08027B6
:103A50007F01A068B84207D12069002804D1300056
:103A6000C00701D5012059E07020205C012801D158
:103A7000022053E00120702160540020E0672120E3
:103A80006067FEF7D9FB01906846008850216052BC
:103A900068460088522160520295A068B84204D15D
:103AA0002069002801D1002514E03500002611E02E
:103AB0002878216888626D1C07E0002DF8D13088D5
:103AC000C005C00D21688862B61C5220205A401ED5
:103AD000522160525220205A00280BD002980090A8
:103AE000019B00228021200000F052FA0028E4D03F
:103AF000032013E002980090019B00224021200047
:103B000000F046FA002801D0032007E0202060677B
:103B1000002070216054002000E00220FEBD000063
:103B2000F8B50400102210000020002500212368B1
:103B3000AA4EB342FFD0A36826691E436769374384
:103B4000E3693B4326683668B64F37403B432668F7
:103B5000336023685B68B44E1E40E36833432668D5
:103B60007360A36900939D4B26689E4203D0009F1B
:103B7000266A3E4300962668B768AC4E3E40009FDA
:103B800037432668B7602668A94FBE4216D1A94EB2
:103B900036680C273740002F06D0042F08D0082F96
:103BA00004D00C2F06D007E0002629E0022627E0EB
:103BB000042625E0082623E0160021E026689E4220
:103BC0001DD19C4E3768C02636013E40002E0CD0D9
:103BD0008027FF00BE420CD080273F01BE4206D0A6
:103BE000C0273F01BE4206D007E0002608E00226BB
:103BF00006E0042604E0082602E0160000E01600B5
:103C000027689F424BD1F6B2002E06D0022E08D074
:103C1000042E0FD0082E11D013E0FEF7D9FA0100C0
:103C200010E0854800680240002A01D0834900E086
:103C3000834907E0FEF788FA010003E080210902CA
:103C400000E00125002900D1E6E06068032250432E
:103C5000814205D36068802252015043884201D2DC
:103C60000125D9E008000021802252000023FFF73F
:103C700067FE02000B00606840080021801859416F
:103C800062680023FDF7B5FEC0218900411AA54AEC
:103C9000914202D22168C860BEE00125BCE08021CB
:103CA0000902E3698B4262D1F6B2002E08D0012EE0
:103CB00012D0022E1CD0042E31D0082E3BD044E06E
:103CC000FEF786FA02214843616849084018616896
:103CD000FDF7F1FC80B239E0FEF788FA0221484393
:103CE0006168490840186168FDF7E5FC80B22DE085
:103CF000514800680240002A08D060684008A24984
:103D000040186168FDF7D7FC80B207E060684008A2
:103D10009E4940186168FDF7CEFC80B216E0FEF7C0
:103D200013FA022148436168490840186168FDF7A9
:103D3000C2FC80B20AE06068400880214902401855
:103D40006168FDF7B8FC80B200E00125A9490200D6
:103D5000103A8A4209D20200114040084007400F41
:103D6000084380B22168C86056E0012554E0F6B2ED
:103D7000002E08D0012E10D0022E18D0042E2FD0E5
:103D8000082E37D03EE0FEF723FA61684908401854
:103D90006168FDF790FC80B235E0FEF727FA6168B4
:103DA000490840186168FDF786FC80B22BE0224884
:103DB00000680240002A08D0606840081F49401887
:103DC0006168FDF778FC80B207E0606840081C4934
:103DD00040186168FDF76FFC80B214E000480040B5
:103DE000FEF7B2F96168490840186168FDF763FCA5
:103DF00080B208E06068400840186168FDF75BFC2D
:103E000080B200E00125010010397A4A914202D2C5
:103E10002168C86000E00125002020666066280057
:103E2000C0B2F2BDF369FFEFFFCFFFFFFFF4FFFF6A
:103E3000004400404C1002400010024000093D00C8
:103E40000024F40000B52421415CC90707D50168AE
:103E50004968694A0A40816A114302685160242115
:103E6000415C890707D501684968644A0A40C16A0C
:103E70001143026851602421415C490707D501685C
:103E800049685F4A0A40016B11430268516024216E
:103E9000415C090707D5016849685A4A0A40416BE5
:103EA0001143026851602421415CC90607D50168AD
:103EB0008968554A0A40816B114302689160242148
:103EC000415C890607D501688968504A0A40C16B80
:103ED0001143026891602421415C490614D50168B0
:103EE00049684B4A0A40016C114302685160016CF9
:103EF00080225203914207D101684968454A0A402D
:103F0000416C1143026851602421415C090607D5C8
:103F100001684968404A0A40816C11430068416069
:103F200000BD000000FD0F007CB504000025E56722
:103F3000FEF782F906002068006800070CD53748B4
:103F400000903300002280218903200000F020F837
:103F5000002801D0032016E02068006840070CD537
:103F60002E480090330000228021C903200000F079
:103F70000FF8002801D0032005E020206067A0672B
:103F800070202554002076BD00127A000048E80118
:103F9000F4B504000D001F00069E2068C06928408B
:103FA000A84201D1012000E000206946097888423A
:103FB0001ED10020C0438642EFD0FEF73DF9C01B62
:103FC000864201D3002EE8D12068006814490140E0
:103FD000206801602068806801218843216888602A
:103FE00020206067A067002070216054032000E05B
:103FF0000020F2BDF0FF0000FFFFFDFFFFFFFEFF0E
:10400000FFFFFBFFFF7FFFFFFFEFFFFFFFDFFFFF74
:10401000FFFFEFFFFFFF9FFFFFFFF7FFFFFFFF0126
:104020005FFEFFFFF8B504000D00160000F088FAEF
:104030000028FBD1B6B20420704320180090E70995
:10404000FF0103E080348035E709FF0100988442D6
:1040500004D21F4800F0A2FA002801D00120F2BDCE
:10406000A7422FD10098001B821004204243812ACE
:1040700000D380222900200000F03EFB002801D15F
:10408000012000E00020C0B20028DBD1A84E30683B
:10409000802189000143316030680821014331608B
:1040A000002038600A4800F079FA00280FD1306803
:1040B0000821884330603068C54901403160E70914
:1040C000FF01803728682060241D2D1DBEE7C5E74D
:1040D000A0860100F8B500F01FFB00F02BF900F0FE
:1040E000D1F900F0A7F900F07BF9002403E0642087
:1040F00000F028FB641C322C09DA1021A020C00536
:10410000FEF728FE05002800C0B20028EFD1EDB26E
:10411000002D00D0CBE0AF48C5490860AE4C200070
:10412000FEF75CFE7620AD498884CE48AB498862B4
:1041300003E0FA20C00000F005FB2100A748FEF7CD
:104140008BFF0028F5D0C84F012208213800FEF768
:104150000CFEFA20800000F0F5FA00220821380059
:10416000FEF703FEFA20400000F0ECFA01220821DD
:104170003800FEF7FAFDFA20800000F0E3FA002292
:1041800008213800FEF7F1FD642000F0DBFA00267C
:104190001AE0FA20C00000F0D5FAB44DB44CB54B8B
:1041A000220029008D48FFF73AF90028F1D0216854
:1041B0002868FEF759FEB04C216800F0D3FA206061
:1041C000761C642000F0BEFA322EE6DBAA480068B6
:1041D000AA49FFF776F9AA49086000260120009055
:1041E000012208213800FEF7C0FDFA24A4002000B7
:1041F00000F0A8FA002208213800FEF7B6FDFA20E8
:10420000400000F09FFA012208213800FEF7ADFDC2
:10421000200000F097FA002208213800FEF7A5FDE3
:104220003DE000B280B2B549086037E0FA20C00036
:1042300000F088FA8D4D8E4C8E4B22002900674885
:10424000FFF7EDF80028F1D0AD4F21682868FEF7A0
:104250000BFE386038688A49096800F0BBFAA94942
:1042600000F010FB00F066FB3100C907C90FC9B2AE
:104270000029D6D0A1490A6800041018086001225C
:104280000098301A042358439F4BC018FFF7CAFE0A
:104290000098401C0090022000F054FA761C802008
:1042A0004001864230DA632000F04CFAC2E79748BA
:1042B0005F490860012208216B48FEF756FD002483
:1042C0001EE08E48042161438F4A89180968016005
:1042D00003680068000C8E4E8E4D00B200901BB239
:1042E00022008D49280000F043FB3080642332888F
:1042F00029008A48FFF79AFB642000F023FA641C27
:10430000802040018442DCDB574C01220821200040
:10431000FEF72BFDFA20400000F014FA00220821DD
:104320002000FEF722FDFA20800000F00BFAEBE7F8
:104330000420024038B598B03421002422000BAD8F
:104340002800FEF723FD142122006D462800FEF709
:104350001DFD1821220005AD2800FEF717FD70484D
:104360000168704A0A40802109011143016002205E
:104370000B9001210E9110210F9114901594802023
:10438000C00216908020C00317900BA8FDF77AFB9F
:10439000002801D000F0D2F80F20009003200190F7
:1043A00002940394049401216846FDF7EDFD002872
:1043B00001D000F0C3F80A2005900794099405A8DD
:1043C00000F0F6FA002801D000F0B8F819B030BDBE
:1043D000FFFDFFFF584E000800020020D40100201E
:1043E00010B5204C50482060504860600020A0600C
:1043F0000121E16020616061A061E0612062200034
:10440000FDF7AAFF002801D000F098F80021200055
:1044100000F09CFB002801D000F090F80021200063
:1044200000F0C6FB002801D000F088F810BD0000A5
:104430000000002080B539483D490160E121490272
:10444000416000218160C16001610C224261816193
:10445000C16101624162FFF7A9FA002801D000F0B2
:104460006DF801BD880100200004005024020020E6
:1044700020020020280200203802002000004842CC
:104480003002002070B586B0142100252A0001AC4E
:104490002000FEF77BFC0421264802680A430260E4
:1044A00002681140009100990124016821430160D4
:1044B0000168214000910099022102680A430260CC
:1044C00000680140009100981B4E00220821300036
:1044D000FEF74BFC102001900295039401A9A02047
:1044E000C005FEF743FB0820019002940395049554
:1044F00001A93000FEF73AFB06B070BD2C02002087
:10450000340200200000C84200600008EC4D0008A2
:104510004402002008010020004E0008880000200E
:1045200000700040FFE7FFFF00540040BB7C7000BC
:10453000004400402C100240000400507047FEE789
:1045400010B5012231480168114000290FD0EFF366
:10455000108172B6614B624C1C60624C1C6081F32E
:10456000108801680A40002A01D0012015E00222CB
:104570000168114000290FD0EFF3108172B65A4B39
:104580005A4C1C605A4C1C6081F310880068024031
:10459000002A01D0012000E0002010BD38B5040041
:1045A000FDF74AFE05004C480168C9070CD50020FC
:1045B000C0438442F7D0002C04D0FDF73DFE401BE1
:1045C0008442F0D203201FE0022102680A40002A40
:1045D00000D001600168C90511D4016889050ED4B5
:1045E000016849050BD40168090508D401688904EC
:1045F00005D40168890302D40068C00303D500F024
:1046000007F8012000E0002032BD00000420024035
:1046100030B50021802252002F4803681340002B40
:1046200007D0344B5C69022525435D610B00110006
:10463000194380239B0002681A40002A07D02D4AA4
:1046400054690125254355610A001900114380234F
:10465000DB0002681A40002A07D0264A5469082560
:10466000254355610A001900114380231B0102688C
:104670001A40002A07D01F4A546904252543556172
:104680000A001900114380239B0102681A40002A86
:1046900007D0184A54691025254355610A001900AE
:1046A00011430268920307D52023124A54691C4320
:1046B00054610A001900114380235B0202681A400A
:1046C000002A07D00B4A54694025254355610A004A
:1046D00019001143016030BD182002400C20024037
:1046E000EFCDAB890504030210200240BFAE9D8CC4
:1046F0001615141308020020A446521E08D303788E
:104700000C78401C491CA342F7D0181B6446704724
:10471000002064467047FEE710B500240848016891
:1047200040220A4302600020FDF78CFD002801D0E2
:10473000012401E0FEF7A4F92000C0B210BD000082
:104740000020024038B50500FDF776FD040000208A
:10475000C043854200D06D1CFDF76EFD001BA842D2
:10476000FAD331BD0122D20703004B402ED4431AA5
:1047700001D2C01AC91830B44B180418240E1B0EED
:1047800022D0FF2C20D0E31A182B1DDC0902114384
:10479000C40D641E0002104394461925ED1A0A0048
:1047A000AA40D940451801D36D08A41CE405D209DC
:1047B000280A2D062A436546AA41604103181B0EAC
:1047C000FF2B01D3C00DC00530BC7047514006E03F
:1047D0005140CCE70122D20703004B40F8D4431AE2
:1047E00003D2C01AC9185040514030B44B180902C6
:1047F00011430418240E1B0E40D0FF2C3AD0250084
:104800009D410BD31ED8C50D4002401A0BD3ED05B8
:104810000100400AC90591416841D5E7C50D400234
:104820004918401AD0D001214008491C0018FCD575
:104830008C4204D36D1A000AED054019C4E7E8055F
:104840001040C1E7182DBFDCAC1C0D00E140E54174
:104850004D40012D4941C40D00021043451A01D4B9
:104860006D199543641EE405280A2D0695416041A3
:1048700030BC7047FF2BA7D1D843A5E72442A3D172
:104880000020A1E730B405004D400122D2071540B9
:104890004B180418240E2ED01B0E32D0FF2C34D00F
:1048A000FF2B3AD0E4180002090210431143000A1A
:1048B000090A9446C2B24A43000AC3B24B43000AF3
:1048C0004843110A5B181A43D2B2190A091801D4D5
:1048D0004918641E080A7F3C23DBFE2C08DAE40535
:1048E00009061143634699416041284330BC704733
:1048F000FF20C005F9E728001B0EFF2BF6D1D0439F
:10490000F4E72800FF2CF1D1F9E74002F7D1FF2BA3
:1049100001D14902F3D1E005E7E7D8054902E4D027
:10492000EDE743020020641CDFD15B129B1CDCD945
:10493000D805DAE70122D2070118090E7F3910D411
:1049400049421F310FD4001805D2C0011043C8409E
:1049500000D5D0437047C0011043C84005D4404241
:104960007047002070470042F3D510007047FEE703
:104970000CB418B583B004000A0006A80290019494
:104980000020009002AB01A9084878441E30FBF7D4
:1049900097FB0021019A1170002801D40198001B97
:1049A00004B0019910BC03B0084700BF6FC9FFFFF6
:1049B000F8B504002078800600D482E020788006D4
:1049C000002580204005544909680140002904D190
:1049D00051490A68104308600125504E3068C005EF
:1049E00011D430688021490001433160FDF724FC77
:1049F00007003068C00506D4FDF71EFCC01B652803
:104A0000F7D3032086E046480168C02080030840B1
:104A10006168C02292030A4090420BD0C0208002FD
:104A200061680140814205D13D480068800301D59D
:104A300001206FE03B4EC027BF023068384000289D
:104A400024D061683940884220D0207880061DD566
:104A50003168354808403168802212030A433260C9
:104A60003168324A0A4032603060C0050ED5FDF729
:104A7000E3FB00903068800508D4FDF7DDFB00996A
:104A8000401A2B498842F5D3032043E06068384040
:104A9000B84209D122480268264911406268C02301
:104AA0009B0313400B430360306861680F4007436A
:104AB0003760EDB2012D04D1174801681E4A0A4043
:104AC00002602078800706D51C4801680C229143BB
:104AD000A2680A4302602078400706D5174801689B
:104AE000174A0A40E168114301602078000706D5A3
:104AF00012480168134A0A40216911430160207875
:104B0000000606D50D4801680F4A0A406169114345
:104B100001600020F2BD000038100240007000402B
:104B20000010024050100240FFFFFCFFFFFFF7FFA4
:104B300089130000FFFFCFFFFFFFFFEF4C10024083
:104B4000FFF3FFFFFFCFFFFFFFFFF3FF10B5412291
:104B5000825C202A2AD14022825C012A01D10220D3
:104B600025E001221300402403552423412403554A
:104B700003681B680124A3430468236003681B685F
:104B8000234C1C4003681C6003681B6819430368BE
:104B90001960016809680A4301680A6020214122FE
:104BA0008154002140228154002000E0022010BDE9
:104BB00010B54122825C202A27D14022825C012A42
:104BC00001D1022022E001221300402403552423B6
:104BD0004124035503681B680124A3430468236030
:104BE00003681B680B4C1C400902214303681960D1
:104BF000016809680A4301680A6020214122815442
:104C0000002140228154002000E0022010BD00005D
:104C1000FFEFFFFFFFF0FFFF686A6C747A4C000043
:104C20007072696E74665F733A20256E20646973D2
:104C3000616C6C6F776564007072696E74663A209F
:104C400062616420256E20617267756D656E740007
:104C50007072696E74665F733A20626164202573B6
:104C600020617267756D656E7400000000000000C1
:104C70007072696E74665F733A2062616420256C9D
:104C80007320617267756D656E740000000000002E
:104C90006E616E004E414E00696E6600494E4600E0
:104CA0003000FEE710B412480168802252000A4327
:104CB000026010490A68104B13400B6002680F4BEA
:104CC000134003600E4A13680124A3431360026873
:104CD0000C4B1340036008680B4A02400A60002036
:104CE0000A490860802000050949086010BC704727
:104CF000001002400C1002400C40FF88F6FFF6FE48
:104D000008100240FFFFFBFFFFFF02FF10100240F0
:104D100008ED00E070B40123002413E00168001DD9
:104D2000194202D04D466D1E49190C60091D121F13
:104D3000042AFAD20D00960701D50C80AD1C1A404A
:104D400000D02C700268001D002AE7D170BC7047AB
:104D500010B5074979441831064C7C44163404E0F8
:104D6000081D0A68891888470100A142F8D110BDC2
:104D700008000000240000009DFFFFFFC0010000AC
:104D8000880000200000000077C4FFFF040100003D
:104D9000640000000000002000F00DF8002801D0A1
:104DA000FFF7D6FF00BF00BF002000BF00BFFFF726
:104DB00091F900F002F80120704780B500F002F888
:104DC00001BDFEE707463846FCF752FEFBE7FF2928
:104DD00002D90020C043704701700120704700785D
:104DE000401E8041C043C00F7047FEE77472616E81
:104DF000736D6974696E6720746F20554152540059
:104E00002530356420202530366420202530366456
:104E1000200A0000704700B5FEE77047704780B574
:104E200000F002F801BDFEE702480168491C01607C
:104E3000704700BF3C02002000000000000000009E
:104E4000010203040607080901488047014800479A
:104E5000A54C0008714E00086D65617375726D6533
:104E60006E740000030406080C10182030000000C7
:104E700000BF00BF00BF00BFFFF78EFF00000000B3
:104E800001020304FEE7FEE7FEE7FEE7FEE700009F
:104E900010078E4E0008000020008F08F107045212
:104EA000FF01E37A13141001000092144001010085
:104EB0000045F1160123DF4D2F40020000CF4D3C8D
:024EC0002101CE
:0400000508004E7130
:00000001FF
